:020000040800F2
:100000000050002045440008C53B0008CD3B0008D7
:10001000D53B0008DD3B0008E53B00080000000080
:1000200000000000000000000000000081A10008A6
:10003000ED3B00080000000041A3000889A3000870
:100040008D4400088D4400088D4400088D4400084C
:100050008D4400088D4400088D4400088D4400083C
:100060008D4400088D4400088D4400088D4400082C
:100070008D4400088D440008F93B00080D3C000841
:100080008D4400088D4400088D4400088D4400080C
:100090008D4400088D4400088D4400088D440008FC
:1000A0008D440008213C00088D4400088D44000860
:1000B0008D4400088D4400088D4400088D440008DC
:1000C0008D4400088D4400088D4400088D440008CC
:1000D0008D440008353C00088D4400088D4400081C
:1000E0008D4400088D4400088D4400080000000085
:1000F0000000000000000000000000000000000000
:0C01000000000000000000005FF808F1A3
:1001100010B5054C237833B9044B13B10448AFF341
:1001200000800123237010BD0802002000000000A1
:10013000BCE3000808B5034B1BB103490348AFF308
:10014000008008BD000000000C020020BCE3000895
:10015000034613F8012B002AFBD1181A0138704707
:1001600081F0004102E000BF83F0004330B54FEA68
:1001700041044FEA430594EA050F08BF90EA020FD5
:100180001FBF54EA000C55EA020C7FEA645C7FEA68
:10019000655C00F0E2804FEA5454D4EB5555B8BF8B
:1001A0006D420CDD2C4480EA020281EA030382EAFC
:1001B000000083EA010180EA020281EA0303362D8E
:1001C00088BF30BD11F0004F4FEA01314FF4801C61
:1001D0004CEA113102D0404261EB410113F0004F73
:1001E0004FEA03334CEA133302D0524263EB43032A
:1001F00094EA050F00F0A780A4F10104D5F1200EC8
:100200000DDB02FA0EFC22FA05F2801841F1000122
:1002100003FA0EF2801843FA05F359410EE0A5F1F6
:1002200020050EF1200E012A03FA0EFC28BF4CF027
:10023000020C43FA05F3C01851EBE37101F00045DD
:1002400007D54FF0000EDCF1000C7EEB00006EEBEA
:100250000101B1F5801F1BD3B1F5001F0CD3490874
:100260005FEA30004FEA3C0C04F101044FEA4452CB
:1002700012F5800F80F09A80BCF1004F08BF5FEA52
:10028000500C50F1000041EB045141EA050130BD32
:100290005FEA4C0C404141EB0101013C28BFB1F544
:1002A000801FE9D291F0000F04BF01460020B1FA8F
:1002B00081F308BF2033A3F10B03B3F120020CDA62
:1002C0000C3208DD02F1140CC2F10C0201FA0CF040
:1002D00021FA02F10CE002F11402D8BFC2F1200CA5
:1002E00001FA02F120FA0CFCDCBF41EA0C0190405B
:1002F000E41AA2BF01EB0451294330BD6FEA0404A4
:100300001F3C1CDA0C340EDC04F11404C4F120028E
:1003100020FA04F001FA02F340EA030021FA04F3A0
:1003200045EA030130BDC4F10C04C4F1200220FAF7
:1003300002F001FA04F340EA0300294630BD21FA35
:1003400004F0294630BD94F0000F83F4801306BFFB
:1003500081F480110134013D4EE77FEA645C18BFEF
:100360007FEA655C29D094EA050F08BF90EA020F86
:1003700005D054EA000C04BF1946104630BD91EA7E
:10038000030F1EBF0021002030BD5FEA545C05D181
:100390004000494128BF41F0004130BD14F58004C0
:1003A0003CBF01F5801130BD01F0004545F0FE4134
:1003B00041F470014FF0000030BD7FEA645C1ABF69
:1003C000194610467FEA655C1CBF0B46024650EAA0
:1003D000013406BF52EA033591EA030F41F40021CC
:1003E00030BD00BF90F0000F04BF0021704730B552
:1003F0004FF4806404F132044FF000054FF0000127
:1004000050E700BF90F0000F04BF0021704730B5E7
:100410004FF4806404F1320410F0004548BF4042BC
:100420004FF000013EE700BF42004FEAE2014FEA11
:1004300031014FEA02701FBF12F07F4393F07F4FEC
:1004400081F06051704732F07F4208BF704793F0EF
:100450007F4F04BF41F40021704730B54FF4607402
:1004600001F0004521F000411CE700BF50EA010205
:1004700008BF704730B54FF000050AE050EA0102AE
:1004800008BF704730B511F0004502D5404261EB1E
:1004900041014FF4806404F132045FEA915C3FF45F
:1004A000D8AE4FF003025FEADC0C18BF03325FEAFC
:1004B000DC0C18BF033202EBDC02C2F1200300FAAD
:1004C00003FC20FA02F001FA03FE40EA0E0021FAD2
:1004D00002F11444BDE600BF70B54FF0FF0C4CF4C0
:1004E000E06C1CEA11541DBF1CEA135594EA0C0F72
:1004F00095EA0C0F00F0DEF82C4481EA030621EAAD
:100500004C5123EA4C5350EA013518BF52EA0335E7
:1005100041F4801143F4801338D0A0FB02CE4FF099
:100520000005E1FB02E506F00042E0FB03E54FF0C9
:100530000006E1FB03569CF0000F18BF4EF0010EC1
:10054000A4F1FF04B6F5007F64F5407404D25FEABD
:100550004E0E6D4146EB060642EAC62141EA555170
:100560004FEAC52040EA5E504FEACE2EB4F1FD0CB2
:1005700088BFBCF5E06F1ED8BEF1004F08BF5FEA30
:10058000500E50F1000041EB045170BD06F00046E2
:1005900046EA010140EA020081EA0301B4EB5C048F
:1005A000C2BFD4EB0C0541EA045170BD41F4801187
:1005B0004FF0000E013C00F3AB8014F1360FDEBFAC
:1005C000002001F0004170BDC4F10004203C35DA88
:1005D0000C341BDC04F11404C4F1200500FA05F30B
:1005E00020FA04F001FA05F240EA020001F00042AC
:1005F00021F0004110EBD37021FA04F642EB060122
:100600005EEA430E08BF20EAD37070BDC4F10C044B
:10061000C4F1200500FA04F320FA05F001FA04F20F
:1006200040EA020001F0004110EBD37041F10001FB
:100630005EEA430E08BF20EAD37070BDC4F1200506
:1006400000FA05F24EEA020E20FA04F301FA05F26E
:1006500043EA020321FA04F001F0004121FA04F216
:1006600020EA020000EBD3705EEA430E08BF20EAE6
:10067000D37070BD94F0000F0FD101F00046400020
:1006800041EB010111F4801F08BF013CF7D041EAA2
:10069000060195F0000F18BF704703F000465200A6
:1006A00043EB030313F4801F08BF013DF7D043EA77
:1006B0000603704794EA0C0F0CEA135518BF95EA2D
:1006C0000C0F0CD050EA410618BF52EA4306D1D1B4
:1006D00081EA030101F000414FF0000070BD50EAD3
:1006E000410606BF1046194652EA430619D094EA5D
:1006F0000C0F02D150EA013613D195EA0C0F05D147
:1007000052EA03361CBF104619460AD181EA03019A
:1007100001F0004141F0FE4141F470014FF0000052
:1007200070BD41F0FE4141F4780170BD70B54FF0ED
:10073000FF0C4CF4E06C1CEA11541DBF1CEA13556D
:1007400094EA0C0F95EA0C0F00F0A7F8A4EB05044F
:1007500081EA030E52EA03354FEA013100F0888046
:100760004FEA03334FF0805545EA131343EA12630F
:100770004FEA022245EA111545EA10654FEA0026C4
:100780000EF000419D4208BF964244F1FD0404F57D
:10079000407402D25B084FEA3202B61A65EB0305D9
:1007A0005B084FEA32024FF480104FF4002CB6EB96
:1007B000020E75EB030E22BFB61A754640EA0C0016
:1007C0005B084FEA3202B6EB020E75EB030E22BF56
:1007D000B61A754640EA5C005B084FEA3202B6EB97
:1007E000020E75EB030E22BFB61A754640EA9C0056
:1007F0005B084FEA3202B6EB020E75EB030E22BF26
:10080000B61A754640EADC0055EA060E18D04FEAE3
:10081000051545EA16754FEA06164FEAC30343EA83
:1008200052734FEAC2025FEA1C1CC0D111F4801F50
:100830000BD141EA00014FF000004FF0004CB6E749
:1008400011F4801F04BF01430020B4F1FD0C88BFE8
:10085000BCF5E06F3FF6AFAEB5EB030C04BFB6EBF3
:10086000020C5FEA500C50F1000041EB045170BDE6
:100870000EF0004E4EEA113114EB5C04C2BFD4EB13
:100880000C0541EA045170BD41F480114FF0000E97
:10089000013C90E645EA060E8DE60CEA135594EA13
:1008A0000C0F08BF95EA0C0F3FF43BAF94EA0C0F16
:1008B0000AD150EA01347FF434AF95EA0C0F7FF48B
:1008C00025AF104619462CE795EA0C0F06D152EADF
:1008D00003353FF4FDAE1046194622E750EA4106C3
:1008E00018BF52EA43067FF4C5AE50EA41047FF4D4
:1008F0000DAF52EA43057FF4EBAE12E74FF0FF3C39
:1009000006E000BF4FF0010C02E000BF4FF0010C09
:100910004DF804CD4FEA410C7FEA6C5C4FEA430C82
:1009200018BF7FEA6C5C1BD001B050EA410C0CBFD1
:1009300052EA430C91EA030F02BF90EA020F002033
:10094000704710F1000F91EA030F58BF994208BF9A
:1009500090422CBFD8176FEAE37040F00100704757
:100960004FEA410C7FEA6C5C02D150EA013C07D1AE
:100970004FEA430C7FEA6C5CD6D152EA033CD3D0F9
:100980005DF8040B704700BF8446104662468C46F3
:100990001946634600E000BF01B5FFF7B7FF002826
:1009A00048BF10F1000F01BD4DF808EDFFF7F4FF4F
:1009B0000CBF012000205DF808FB00BF4DF808EDDA
:1009C000FFF7EAFF34BF012000205DF808FB00BFFD
:1009D0004DF808EDFFF7E0FF94BF012000205DF81F
:1009E00008FB00BF4DF808EDFFF7CEFF94BF0120D4
:1009F00000205DF808FB00BF4DF808EDFFF7C4FFCD
:100A000034BF012000205DF808FB00BF4FEA410C15
:100A10007FEA6C5C02D150EA013C0AD14FEA430CF8
:100A20007FEA6C5C02D152EA033C02D14FF0000035
:100A300070474FF0010070474FEA410212F5001273
:100A400015D211D56FF47873B3EB625212D94FEA15
:100A5000C12343F0004343EA505311F0004F23FAFF
:100A600002F018BF404270474FF00000704750EA54
:100A7000013005D111F0004008BF6FF00040704711
:100A80004FF00000704700BF4A0011D212F500126B
:100A900011D20DD56FF47873B3EB62520ED44FEAD6
:100AA000C12343F0004343EA505323FA02F0704756
:100AB0004FF00000704750EA013002D14FF0FF3094
:100AC00070474FF0000070474FEA4102B2F1E04337
:100AD00024BFB3F5001CDCF1FE5C0DD901F0004C25
:100AE0004FEAC0024CEA5070B2F1004F40EB830075
:100AF00008BF20F00100704711F0804F21D113F1A1
:100B00003872BCBF01F00040704741F480114FEAD9
:100B10005252C2F11802C2F1200C10FA0CF320FA62
:100B200002F018BF40F001004FEAC1234FEAD3237F
:100B300003FA0CFC40EA0C0023FA02F34FEA4303E9
:100B4000CCE77FEA625307D150EA01331EBF4FF072
:100B5000FE4040F44000704701F0004040F0FE408D
:100B600040F40000704700BF80F0004002E000BF8A
:100B700081F0004142001FBF5FEA410392EA030F88
:100B80007FEA226C7FEA236C6AD04FEA1262D2EBD2
:100B90001363C1BFD218414048404140B8BF5B42D7
:100BA000192B88BF704710F0004F40F4000020F070
:100BB0007F4018BF404211F0004F41F4000121F086
:100BC0007F4118BF494292EA030F3FD0A2F10102D0
:100BD00041FA03FC10EB0C00C3F1200301FA03F10E
:100BE00000F0004302D5494260EB4000B0F5000F31
:100BF00013D3B0F1807F06D340084FEA310102F1F0
:100C00000102FE2A51D2B1F1004F40EBC25008BFA1
:100C100020F0010040EA03007047490040EB00006B
:100C2000013A28BFB0F5000FEDD2B0FA80FCACF16C
:100C3000080CB2EB0C0200FA0CF0AABF00EBC25099
:100C400052421843BCBFD0401843704792F0000F87
:100C500081F4000106BF80F400000132013BB5E7DA
:100C60004FEA41037FEA226C18BF7FEA236C21D050
:100C700092EA030F04D092F0000F08BF08467047B5
:100C800090EA010F1CBF0020704712F07F4F04D183
:100C9000400028BF40F00040704712F100723CBF96
:100CA00000F50000704700F0004343F0FE4040F4C0
:100CB000000070477FEA226216BF08467FEA23637E
:100CC0000146420206BF5FEA412390EA010F40F469
:100CD000800070474FF0000304E000BF10F00043B5
:100CE00048BF40425FEA000C08BF704743F096439C
:100CF00001464FF000001CE050EA010208BF7047B7
:100D00004FF000030AE000BF50EA010208BF70473D
:100D100011F0004302D5404261EB41015FEA010C52
:100D200002BF84460146002043F0B64308BFA3F14A
:100D30008053A3F50003BCFA8CF2083AA3EBC2532C
:100D400010DB01FA02FC634400FA02FCC2F120024B
:100D5000BCF1004F20FA02F243EB020008BF20F082
:100D60000100704702F1200201FA02FCC2F12002E8
:100D700050EA4C0021FA02F243EB020008BF20EADD
:100D8000DC70704780B582B000AF104B5B690F4AD2
:100D900043F0010353610D4B5B6903F001037B607A
:100DA0007B68002205210E2003F059FC0E2003F081
:100DB00072FC002205210F2003F051FC0F2003F0EC
:100DC0006AFC00BF0837BD4680BD00BF001002406E
:100DD00080B485B000AFF860B9607A60FB68064AFD
:100DE0001A60BB68054A1A607B6880221A6000BFDF
:100DF0001437BD4680BC70473002002084020020BA
:100E000080B485B000AFF860B9607A60FB68074ACB
:100E10001A60BB68064A1A607B684FF480721A60D9
:100E200000BF1437BD4680BC704700BF840400205B
:100E3000D8040020B0B58CB000AF184BBB620023C3
:100E4000FB6207F1280300220121184607F066F82B
:100E50000346134A1360134B3B6200237B6207F186
:100E6000200300220121184607F058F803460E4AD5
:100E700013600E4B3C1D1D460FCD0FC495E80700B7
:100E800084E807003B1D0021184606F0E7FF0346F3
:100E9000074A136000BF3037BD46B0BDE50E0008FD
:100EA00028020020FD0F00082C020020E8E30008C3
:100EB0002402002080B582B000AF7860074B1B6829
:100EC0000A21184607F05EF8054B1B686421184696
:100ED00007F058F8012007F00DF8FBE72802002082
:100EE0002C02002080B582B000AF7860374806F051
:100EF000EFFC374806F0ECFC364BD3E900233649CB
:100F0000C1E90023354BD3E900233549C1E900236A
:100F10002E4806F0B1FD02460B463249C1E90023D6
:100F20002B4806F0A9FD02460B462F49C1E90023D4
:100F30002E4B1B78DBB2012B38D1244806F078FD0C
:100F400003461846FFF75EFA02460B462249C1E9FE
:100F500002231F4806F06CFD03461846FFF752FABD
:100F600002460B461E49C1E902231B4806F08AFED1
:100F70001B4806F087FE184BD3E910014FF0000222
:100F80001B4BFFF7D3FB02460B461A4806F02AFB21
:100F9000134BD3E910014FF00002154BFFF7C6FBCE
:100FA00002460B46144806F01DFB0BE0114806F004
:100FB000C3FB114806F0C0FB094806F0FBFE0648DB
:100FC00006F0F8FE00BF0837BD4680BDD8080020F7
:100FD00028090020280B0020500A0020300B002098
:100FE000B80A0020400B0020480B0020200B0020F6
:100FF00000009040100000200000002080B582B06A
:1010000000AF786001F034FF00BF0837BD4680BDF7
:1010100080B588B000AF07F1100300221A605A6053
:101020009A60DA602E4B9B692D4A43F0100393615E
:101030002B4B9B6903F01003FB60FB68284B9B69FB
:10104000274A43F020039361254B9B6903F020035B
:10105000BB60BB68224B9B69214A43F00403936148
:101060001F4B9B6903F004037B607B681C4B9B69EF
:101070001B4A43F008039361194B9B6903F0080373
:101080003B603B6800224FF40051164803F038FFE4
:1010900000224FF47041144803F032FF4FF4005324
:1010A0003B6101237B610023BB610223FB6107F1EC
:1010B000100319460B4803F09FFD4FF470433B614A
:1010C00001237B610023BB610223FB6107F1100355
:1010D0001946054803F090FD00BF2037BD4680BD8E
:1010E0000010024000100140000C01400000000010
:1010F00080B58AB00AAF03F0CBF900F0C1F8FFF772
:1011000087FFFFF73FFE03F067F802F065FE02F08D
:10111000D7FE02F029FF03F089F86421484806F061
:1011200047FD6421474806F043FD4FF00002464B5F
:10113000CDE908234FF00002444BCDE906233AA342
:10114000D3E90023CDE9042339A3D3E90023CDE972
:1011500002234FF000023E4BCDE900234FF0000286
:101160003C4B3D4806F049FD4FF00002364BCDE9BF
:1011700008234FF00002354BCDE906232AA3D3E91B
:101180000023CDE904232AA3D3E90023CDE90223D8
:101190004FF000022E4BCDE900234FF000022D4B03
:1011A0002E4806F02AFD2E4B0593254B04934FF055
:1011B00000022C4BCDE902234FF000022A4BCDE96F
:1011C00000231DA3D3E90023284806F03DFB284B4C
:1011D00005931C4B04934FF00002224BCDE90223F0
:1011E0004FF00002204BCDE9002313A3D3E90023E5
:1011F000204806F029FB204806F0DAFA1F4806F0DE
:10120000D7FA3C21164804F011FD3C21184804F09F
:101210000DFD01F015FEFFF70DFE06F018FE00BFF4
:10122000FDE700BFAFF300807B14AE47E17A843F57
:101230002D431CEBE2361A3FB81E85EB51B8AE3F8A
:1012400078090020E409002000009040000090C0D0
:10125000000008400000F03F500A0020B80A0020BB
:10126000F41500200000264000804640D8080020E9
:101270003C1600202809002000000020100000205B
:1012800080B590B000AF07F118032822002118465E
:101290000BF0ABF83B1D00221A605A609A60DA60CE
:1012A0001A610123BB614FF48033FB6100233B6271
:1012B0000123BB6202237B634FF48033BB634FF493
:1012C000E013FB6307F11803184603F031FE0346F1
:1012D000002B01D000F02CF80F237B600223BB60B1
:1012E0000023FB604FF480633B6100237B613B1D67
:1012F0000221184604F09EF80346002B01D000F0AE
:1013000017F800BF4037BD4680BD000080B582B0F1
:1013100000AF78607B681B68044A934201D103F0F8
:10132000CDF800BF0837BD4680BD00BF002C01408E
:1013300080B400AF72B600BF00BFFDE780B483B0D9
:1013400000AF78607B6800221A607B6800225A60D8
:101350007B6818460C37BD4680BC704780B483B0AC
:1013600000AF7860044A7B681A607B6818460C37C7
:10137000BD4680BC704700BF9CE7000880B582B0C6
:1013800000AF78607B681846FFF7E8FF064A7B6885
:101390001A607B6804331846FFF7D0FF7B68184655
:1013A0000837BD4680BD00BF84E7000880B485B023
:1013B00000AF786039600023FB607B685968FB6888
:1013C0003A681344CAB21A707B685B68190AFB68F2
:1013D00001333A681344CAB21A707B685B68190C0F
:1013E000FB6802333A681344CAB21A707B685B68C0
:1013F000190EFB6803333A681344CAB21A70FB68CB
:101400000433FB607B689968FB683A681344CAB28E
:101410001A707B689B68190AFB6801333A681344A9
:10142000CAB21A707B689B68190CFB6802333A6871
:101430001344CAB21A707B689B68190EFB680333A9
:101440003A681344CAB21A70FB680433FB60FB6845
:1014500018461437BD4680BC704780B485B000AFD5
:10146000786039600023FB60FB683A6813441B789E
:101470001A467B685A607B685A68FB680133396892
:101480000B441B781B021A437B685A607B685A68BE
:10149000FB68023339680B441B781B041A437B68D2
:1014A0005A607B685A68FB68033339680B441B78C1
:1014B0001B061A437B685A60FB680433FB60FB68B9
:1014C0003A6813441B781A467B689A607B689A686E
:1014D000FB68013339680B441B781B021A437B6895
:1014E0009A607B689A68FB68023339680B441B7802
:1014F0001B041A437B689A607B689A68FB68033315
:1015000039680B441B781B061A437B689A60FB689A
:101510000433FB60FB6818461437BD4680BC704737
:1015200080B483B000AF7860024B18460C37BD46DC
:1015300080BC704704E4000880B483B000AF7860DA
:10154000024B18460C37BD4680BC704714E40008B7
:1015500080B582B000AF78607B681846FFF7FEFE6A
:101560000B4A7B681A607B6800229A807B68094A74
:101570009A607B68074ADA607B68064A1A617B6872
:1015800000225A617B6818460837BD4680BD00BFFF
:101590006CE7000838E4000880B588B000AF7860D8
:1015A00039600023FB617B689988FB693A681344C2
:1015B000CAB21A707B689B881B0A99B2FB69013317
:1015C0003A681344CAB21A70FB690233FB617B6844
:1015D0009B681846FEF7BCFDB861FB693A68134486
:1015E000B969184601F0A8FCFB690433FB61FB698B
:1015F0003A68D0187B689B68BA6919460AF0D7FF29
:10160000FA69BB691344FB617B68DB681846FEF727
:101610009FFD7861FB693A6813447969184601F0C7
:101620008BFCFB690433FB61FB693A68D0187B686B
:10163000DB687A6919460AF0BAFFFA697B691344D4
:10164000FB617B681B691846FEF782FD3861FB6908
:101650003A6813443969184601F06EFCFB6904339B
:10166000FB61FB693A68D0187B681B693A691946C7
:101670000AF09DFFFA693B691344FB617B685B6973
:10168000FB60F968FB693A681344CAB21A70FB68D8
:10169000190AFB6901333A681344CAB21A70FB682D
:1016A000190CFB6902333A681344CAB21A70FB681A
:1016B000190EFB6903333A681344CAB21A70FB6906
:1016C0000433FB61FB6918462037BD4680BD80B5F9
:1016D0008AB000AF786039600023BB61BB693A68AB
:1016E00013441B781A467B689A807B689B881AB2E1
:1016F000BB69013339680B441B781B021BB21343CF
:101700001BB29AB27B689A80BB690233BB61BB692A
:101710003A681A4407F114031146184601F02AFCEE
:10172000BB690433BB61BB697B620BE03A687B6ACF
:101730001A447B6A013B39680B4412781A707B6A41
:1017400001337B62BA697B6913447A6A9A42EDD3AA
:10175000BA697B691344013B3A68134400221A704A
:10176000BB69013B3A681A447B689A60BA697B6935
:101770001344BB61BB693A681A4407F11003114670
:10178000184601F0F7FBBB690433BB61BB693B62E0
:101790000BE03A683B6A1A443B6A013B39680B44E8
:1017A00012781A703B6A01333B62BA693B69134491
:1017B0003A6A9A42EDD3BA693B691344013B3A68ED
:1017C000134400221A70BB69013B3A681A447B68D3
:1017D000DA60BA693B691344BB61BB693A681A4471
:1017E00007F10C031146184601F0C4FBBB69043332
:1017F000BB61BB69FB610BE03A68FB691A44FB699A
:10180000013B39680B4412781A70FB690133FB61A4
:10181000BA69FB681344FA699A42EDD3BA69FB6866
:101820001344013B3A68134400221A70BB69013B20
:101830003A681A447B681A61BA69FB681344BB6151
:101840000023BB60BB68BA6939680A441278134345
:10185000BB60BA68BB69013339680B441B781B0253
:101860001343BB60BA68BB69023339680B441B7809
:101870001B041343BB60BA68BB69033339680B446C
:101880001B781B061343BB60BA687B685A61BB694F
:101890000433BB61BB6918462837BD4680BD0000D4
:1018A00080B483B000AF7860024B18460C37BD4659
:1018B00080BC70473CE4000880B483B000AF78601F
:1018C000024B18460C37BD4680BC704758E40008F0
:1018D00080B582B000AF78607B681846FFF73EFDA8
:1018E000064A7B681A607B6800221A717B68044A8A
:1018F0009A607B6818460837BD4680BD54E70008EB
:1019000038E4000880B584B000AF78603960002307
:10191000FB60FB683A6813447A6812791A70FB68B6
:101920000133FB607B689B681846FEF711FCB860CA
:10193000FB683A681344B968184601F0FDFAFB6881
:101940000433FB60FB683A68D0187B689B68BA6810
:1019500019460AF02CFEFA68BB681344FB60FB686A
:1019600018461037BD4680BD80B586B000AF7860A0
:10197000396000233B613B693A6813441A787B68FD
:101980001A713B6901333B613B693A681A4407F1BC
:101990000C031146184601F0EDFA3B6904333B6134
:1019A0003B697B610BE03A687B691A447B69013BC8
:1019B00039680B4412781A707B6901337B613A698C
:1019C000FB6813447A699A42EDD33A69FB68134481
:1019D000013B3A68134400221A703B69013B3A68A4
:1019E0001A447B689A603A69FB6813443B613B691F
:1019F00018461837BD4680BD80B483B000AF78600C
:101A0000024B18460C37BD4680BC70477CE400088A
:101A100080B483B000AF7860024B18460C37BD46E7
:101A200080BC704790E4000880B582B000AF786059
:101A30007B681846FFF792FC114A7B681A607B6846
:101A400000225A607B6800229A607B680022DA607C
:101A50007B6800221A617B684FF000025A617B6844
:101A600000229A617B680022DA617B6800221A6298
:101A70007B6800225A627B6818460837BD4680BDE5
:101A80003CE7000880B58AB000AF78603960002379
:101A90007B627B6859687B6A3A681344CAB21A70E1
:101AA0007B685B68190A7B6A01333A681344CAB2DF
:101AB0001A707B685B68190C7B6A02333A681344BE
:101AC000CAB21A707B685B68190E7B6A03333A6886
:101AD0001344CAB21A707B6A04337B6200233B62F0
:101AE0002AE07B68DA683B6A9B0013441B683B6111
:101AF00039697B6A3A681344CAB21A703B69190A99
:101B00007B6A01333A681344CAB21A703B69190CF4
:101B10007B6A02333A681344CAB21A703B69190EE1
:101B20007B6A03333A681344CAB21A707B6A04337F
:101B30007B623B6A01333B627B685B683A6A9A422C
:101B4000CFD37B6819697B6A3A681344CAB21A70AA
:101B50007B681B69190A7B6A01333A681344CAB26D
:101B60001A707B681B69190C7B6A02333A6813444C
:101B7000CAB21A707B681B69190E7B6A03333A6814
:101B80001344CAB21A707B6A04337B620023FB6180
:101B90002AE07B689A69FB699B0013441B68FB6021
:101BA000F9687B6A3A681344CAB21A70FB68190A6A
:101BB0007B6A01333A681344CAB21A70FB68190C85
:101BC0007B6A02333A681344CAB21A70FB68190E72
:101BD0007B6A03333A681344CAB21A707B6A0433CF
:101BE0007B62FB690133FB617B681B69FA699A427E
:101BF000CFD37B68D9697B6A3A681344CAB21A703A
:101C00007B68DB69190A7B6A01333A681344CAB2FC
:101C10001A707B68DB69190C7B6A02333A681344DB
:101C2000CAB21A707B68DB69190E7B6A03333A68A3
:101C30001344CAB21A707B6A04337B620023BB610F
:101C400027E07B685A6ABB699B0013441B681846EF
:101C5000FEF77EFA78617B6A3A6813447969184620
:101C600001F06AF97B6A04337B627B6A3A68D018B8
:101C70007B685A6ABB699B0013441B687A691946E2
:101C80000AF095FC7A6A7B6913447B62BB69013375
:101C9000BB617B68DB69BA699A42D2D37B6A18461A
:101CA0002837BD4680BD80B58EB000AF7860396002
:101CB00000237B637B6B3A6813441B783B627B6B2E
:101CC00001333A6813441B781B023A6A13433B62A0
:101CD0007B6B02333A6813441B781B043A6A134344
:101CE0003B627B6B03333A6813441B781B063A6AEA
:101CF00013433B627B6B04337B637B685B683A6AAC
:101D00009A420AD97B68DA683B6A9B0019461046FA
:101D100009F0B4FD02467B68DA607B683A6A5A6073
:101D200000233B6335E000237B617B697A6B396874
:101D30000A44127813437B617A697B6B01333968FB
:101D40000B441B781B0213437B617A697B6B023364
:101D500039680B441B781B0413437B617A697B6BE6
:101D6000033339680B441B781B0613437B617A6984
:101D70007B689A607B6B04337B637B68DA683B6BC0
:101D80009B0013447A68083212681A603B6B013377
:101D90003B637B685B683A6B9A42C4D37B6B3A685F
:101DA00013441B78FB617B6B01333A6813441B7847
:101DB0001B02FA691343FB617B6B02333A681344DD
:101DC0001B781B04FA691343FB617B6B03333A688E
:101DD00013441B781B06FA691343FB617B6B0433C6
:101DE0007B637B681B69FA699A420AD97B689A69A6
:101DF000FB699B001946104609F040FD02467B68CE
:101E00009A617B68FA691A610023FB6235E000235E
:101E10003B613B697A6B39680A44127813433B6132
:101E20003A697B6B013339680B441B781B021343FF
:101E30003B613A697B6B023339680B441B781B04A6
:101E400013433B613A697B6B033339680B441B785E
:101E50001B0613433B613A697B685A617B6B043311
:101E60007B637B689A69FB6A9B0013447A6814322F
:101E700012681A60FB6A0133FB627B681B69FA6AAD
:101E80009A42C4D37B6B3A6813441B78BB617B6B6B
:101E900001333A6813441B781B02BA691343BB61D0
:101EA0007B6B02333A6813441B781B04BA691343F3
:101EB000BB617B6B03333A6813441B781B06BA691A
:101EC0001343BB617B6B04337B637B68DB69BA695B
:101ED0009A420AD97B685A6ABB699B001946104628
:101EE00009F0CCFC02467B685A627B68BA69DA6109
:101EF0000023BB623EE07B6B3A681A4407F10C0397
:101F00001146184601F036F87B6B04337B637B6B1C
:101F10007B620BE03A687B6A1A447B6A013B396852
:101F20000B4412781A707B6A01337B627A6BFB6810
:101F300013447A6A9A42EDD37A6BFB681344013BEF
:101F40003A68134400221A707B6B013B3A681A44CA
:101F50007B681A627A6BFB6813447B637B685A6AFE
:101F6000BB6A9B0013447A68203212681A60BB6A0D
:101F70000133BB627B68DB69BA6A9A42BBD37B6B75
:101F800018463837BD4680BD80B483B000AF786056
:101F9000024B18460C37BD4680BC704760E600080F
:101FA00080B483B000AF7860024B18460C37BD4652
:101FB00080BC7047B4E4000880B485B000AFF8601E
:101FC000B9607A603B60FB68BA681A60FB687A683F
:101FD0005A60FB683A681A61FB6818461437BD46B8
:101FE00080BC704780B582B000AF786039607B6894
:101FF000D8687B68DB681B681B687A6891683A68F8
:102000009847034618460837BD4680BD80B483B064
:1020100000AF78607B681B6918460C37BD4680BCF2
:10202000704780B483B000AF78607B681B68DB6B5F
:102030001B685B68C3F50073C3F3080318460C37CD
:10204000BD4680BC7047000080B483B000AF7860AC
:102050007B680A4A1A607B680022C3F804227B6806
:102060000022C3F808247B680022C3F80C247B6894
:1020700018460C37BD4680BC704700BF8416002050
:1020800080B582B000AF7860786800F004F800BFD7
:102090000837BD4680BD80B582B000AF78607B68F0
:1020A00018687B6804334FF40072194604F078FB1B
:1020B00000BF0837BD4680BD90B585B000AF7860E1
:1020C0004FF0FF33FB607B68D3F804427868FFF77A
:1020D000A8FF03469C4214BF01230023DBB2002B60
:1020E00012D07B68D3F80432591C7A68C2F8041203
:1020F0007A6813441B79FB607B68D3F80432C3F31E
:1021000008027B68C3F80422FB6818461437BD46F2
:1021100090BD000080B584B000AF78607B681B681C
:1021200093F84130DBB2202B08D1284B1B7883F089
:102130000103DBB2002B01D0012300E00023002BC0
:102140003FD0224B01221A707B68D3F808247B68A9
:10215000D3F80C349A4231D07B68D3F80C247B68D6
:10216000D3F808349A420AD27B68D3F808349AB27A
:102170007B68D3F80C349BB2D31A9BB206E07B6821
:10218000D3F80C349BB2C3F500739BB2FB817B6820
:1021900018687B68D3F80C3403F502737A6813442B
:1021A000FA89194604F08CFA7B68D3F80C24FB8971
:1021B0001344C3F308027B68C3F80C24034B0022CA
:1021C0001A7000BF1037BD4680BD00BF380B00201D
:1021D00080B586B000AFF860B9607A607B689BB26A
:1021E000BB82BB8AB3F5007F03D807F114031B88B9
:1021F00001E04FF40073BB82BB8A1A46FB68D3F838
:102200000834C3F50073934228BF1346FB82FB6872
:10221000D3F8083403F50273FA681344FA8AB968EC
:1022200018460AF0C4F9FB68D3F80834BA8A134494
:10223000C3F30802FB68C3F80824BB8AFA8A9A42EF
:102240000CD0FB6803F50270FB8ABA68D118BB8A10
:102250001A46FB8AD31A1A460AF0A9F9F868FFF75A
:1022600059FF00BF1837BD4680BD80B582B000AFB2
:10227000786002F035F9034618460837BD4680BD40
:1022800080B582B000AF78607B681846FFF766F8CB
:10229000054A7B681A607B68044A5A607B68184666
:1022A0000837BD4680BD00BFF8E6000838E40008E6
:1022B00080B584B000AF786039600023FB607B6834
:1022C0005B681846FDF744FFB860FB683A68134442
:1022D000B968184600F030FEFB680433FB60FB6809
:1022E0003A68D0187B685B68BA6819460AF05FF9EB
:1022F000FA68BB681344FB60FB6818461037BD469C
:1023000080BD80B586B000AF7860396000233B6146
:102310003B693A681A4407F10C031146184600F06D
:1023200029FE3B6904333B613B697B610BE03A6802
:102330007B691A447B69013B39680B4412781A7037
:102340007B6901337B613A69FB6813447A699A427D
:10235000EDD33A69FB681344013B3A681344002209
:102360001A703B69013B3A681A447B685A603A69C3
:10237000FB6813443B613B6918461837BD4680BD76
:1023800080B483B000AF7860024B18460C37BD466E
:1023900080BC7047D8E4000880B483B000AF786098
:1023A000024B18460C37BD4680BC7047E8E4000875
:1023B00080B582B000AF78607B681846FEF7CEFF2C
:1023C000084A7B681A607B68074A5A607B6800226B
:1023D0009A607B680022DA607B6818460837BD4641
:1023E00080BD00BFE0E6000838E4000880B584B096
:1023F00000AF786039600023FB607B685B6818463B
:10240000FDF7A6FEB860FB683A681344B968184641
:1024100000F092FDFB680433FB60FB683A68D0185B
:102420007B685B68BA6819460AF0C1F8FA68BB684D
:102430001344FB607B689968FB683A681344CAB22E
:102440001A707B689B68190AFB6801333A68134469
:10245000CAB21A707B689B68190CFB6802333A6831
:102460001344CAB21A707B689B68190EFB68033369
:102470003A681344CAB21A70FB680433FB607B6885
:10248000D968FB683A681344CAB21A707B68DB6883
:10249000190AFB6801333A681344CAB21A707B68A0
:1024A000DB68190CFB6802333A681344CAB21A702D
:1024B0007B68DB68190EFB6803333A681344CAB2C1
:1024C0001A70FB680433FB60FB6818461037BD4682
:1024D00080BD80B586B000AF7860396000233B6175
:1024E0003B693A681A4407F10C031146184600F09C
:1024F00041FD3B6904333B613B697B610BE03A681A
:102500007B691A447B69013B39680B4412781A7065
:102510007B6901337B613A69FB6813447A699A42AB
:10252000EDD33A69FB681344013B3A681344002237
:102530001A703B69013B3A681A447B685A603A69F1
:10254000FB6813443B613B693A6813441B781A46A5
:102550007B689A607B689A683B69013339680B44F1
:102560001B781B021A437B689A607B689A683B69F8
:10257000023339680B441B781B041A437B689A604A
:102580007B689A683B69033339680B441B781B06E8
:102590001A437B689A603B6904333B613B693A6844
:1025A00013441B781A467B68DA607B68DA683B69FB
:1025B000013339680B441B781B021A437B68DA60CD
:1025C0007B68DA683B69023339680B441B781B046B
:1025D0001A437B68DA607B68DA683B6903333968E1
:1025E0000B441B781B061A437B68DA603B69043393
:1025F0003B613B6918461837BD4680BD80B483B047
:1026000000AF7860024B18460C37BD4680BC70475F
:102610000CE5000880B483B000AF7860024B184628
:102620000C37BD4680BC70472CE5000880B582B0F1
:1026300000AF78607B681846FEF790FE0A4A7B6818
:102640001A607B6800225A607B6808331846FFF7DF
:10265000AFFE7B6800229A617B680022DA617B68AA
:1026600018460837BD4680BDC8E6000880B584B06E
:1026700000AF786039600023FB607B685968FB68B5
:102680003A681344CAB21A707B685B68190AFB681F
:1026900001333A681344CAB21A707B685B68190C3C
:1026A000FB6802333A681344CAB21A707B685B68ED
:1026B000190EFB6803333A681344CAB21A70FB68F8
:1026C0000433FB600023BB6017E07B689A69BB683A
:1026D0001B01D0187B689A69BB681B0113441B68F7
:1026E0001B68FA6839680A44114698470246FB6835
:1026F0001344FB60BB680133BB607B685B68BA68EE
:102700009A42E2D37B68D969FB683A681344CAB23B
:102710001A707B68DB69190AFB6801333A68134455
:10272000CAB21A707B68DB69190CFB6802333A681D
:102730001344CAB21A707B68DB69190EFB68033355
:102740003A681344CAB21A70FB680433FB60FB6832
:1027500018461037BD4680BD80B483B000AF7860A6
:1027600039607B6818460C37BD4680BC704780B521
:1027700082B000AF786039607B683A6811461846CD
:10278000FFF7EAFF3B685A687B685A603B689A68C3
:102790007B689A603B68DA687B68DA607B68184619
:1027A0000837BD4680BDF0B587B000AF78603960AE
:1027B00000237B617B693A6813441B78FB607B696B
:1027C00001333A6813441B781B02FA681343FB6019
:1027D0007B6902333A6813441B781B04FA6813437D
:1027E000FB607B6903333A6813441B781B06FA6865
:1027F0001343FB607B6904337B617B685B68FA6829
:102800009A4222D97B689B69002B04D07B689B6924
:10281000184608F01BF8FC68B4F1006F01D22301E0
:1028200001E04FF0FF33184608F012F803461E4649
:102830003546631E1C4604E02846FFF7B9FD013CFF
:102840001035002CF8DA7B689E617B68FA685A6064
:1028500000233B611AE07B6803F108007B693A685A
:1028600013441946FFF735FE02467B6913447B612A
:102870007B689A693B691B011A447B6808331946D7
:102880001046FFF774FF3B6901333B617B685B686F
:102890003A699A42DFD37B693A6813441B781A4637
:1028A0007B68DA617B68DA697B69013339680B44DC
:1028B0001B781B021A437B68DA617B68DA697B69E3
:1028C000023339680B441B781B041A437B68DA61B6
:1028D0007B68DA697B69033339680B441B781B0614
:1028E0001A437B68DA617B6904337B617B69184634
:1028F0001C37BD46F0BD000080B483B000AF7860E7
:10290000024B18460C37BD4680BC704750E50008A6
:1029100080B483B000AF7860024B18460C37BD46D8
:1029200080BC70476CE5000880B582B000AF78606D
:102930007B681846FEF712FD0B4A7B681A607B68BD
:1029400004331846FFF772FE7B6800225A627B68E8
:102950004FF000029A627B680022DA627B681846B8
:102960000837BD4680BD00BFB0E6000880B586B020
:1029700000AF7860396000237B617B68181D7B693C
:102980003A6813441946FFF771FE02467B69134407
:102990007B617B68596A7B693A681344CAB21A70D2
:1029A0007B685B6A190A7B6901333A681344CAB2CF
:1029B0001A707B685B6A190C7B6902333A681344AE
:1029C000CAB21A707B685B6A190E7B6903333A6876
:1029D0001344CAB21A707B6904337B6100233B61E4
:1029E0002AE07B68DA6A3B699B0013441B68FB6042
:1029F000F9687B693A681344CAB21A70FB68190A0D
:102A00007B6901333A681344CAB21A70FB68190C27
:102A10007B6902333A681344CAB21A70FB68190E14
:102A20007B6903333A681344CAB21A707B69043372
:102A30007B613B6901333B617B685B6A3A699A421F
:102A4000CFD37B6918461837BD4680BD80B586B0A8
:102A500000AF7860396000237B617B68181D7B695B
:102A60003A6813441946FFF79EFE02467B691344F9
:102A70007B617B693A6813441B78FB607B69013397
:102A80003A6813441B781B02FA681343FB607B69A6
:102A900002333A6813441B781B04FA681343FB6043
:102AA0007B6903333A6813441B781B06FA681343A7
:102AB000FB607B6904337B617B685B6AFA689A42DE
:102AC0000AD97B68DA6AFB689B001946104608F051
:102AD000D5FE02467B68DA627B68FA685A62002398
:102AE0003B6135E00023BB60BB687A6939680A4402
:102AF00012781343BB60BA687B69013339680B44B1
:102B00001B781B021343BB60BA687B6902333968C8
:102B10000B441B781B041343BB60BA687B69033307
:102B200039680B441B781B061343BB60BA687B688B
:102B30009A627B6904337B617B68DA6A3B699B003C
:102B400013447A68283212681A603B6901333B618A
:102B50007B685B6A3A699A42C4D37B691846183726
:102B6000BD4680BD80B483B000AF7860024B18468C
:102B70000C37BD4680BC704790E5000880B483B038
:102B800000AF7860024B18460C37BD4680BC7047DA
:102B9000ACE5000880B483B000AF7860044A7B687D
:102BA0001A607B6818460C37BD4680BC704700BF72
:102BB00028E7000880B582B000AF78607B681846CF
:102BC000FFF7E8FF364A7B681A607B6804331846D3
:102BD000FFF73AFA7B680022C3F814247B680022CE
:102BE000C3F818247B680022C3F81C247B680022E9
:102BF000C3F820247B6803F224434FF400720021C1
:102C0000184609F0F2FB7B6803F224634FF400726C
:102C10000021184609F0E9FB7B6803F624036422CF
:102C20000021184609F0E1FB7B6803F68803642263
:102C30000021184609F0D9FB7B680022C3F8EC2874
:102C40007B680022C3F8F0287B680022C3F8F428D0
:102C50007B680022C3F8F8287B680022C3F8FC28B0
:102C60007B68002283F800297B680022C3F80429CE
:102C70007B680022C3F808297B680022C3F80C296E
:102C80007B68002283F810297B6803F6141318462A
:102C9000FEF7CAFE7B6818460837BD4680BD00BFF8
:102CA0009CE600080000000080B582B000AF7860AC
:102CB0007B68DB6A1B681846FDF7B6FB02460B46CD
:102CC0004749C1E900237B68DB6A04331B68184667
:102CD000FDF7AAFB02460B464249C1E90023404BDF
:102CE000D3E900014FF000024FF00003FDF75CFE56
:102CF0000346002B1DD03B4BD3E900014FF00002EF
:102D00004FF00003FDF750FE0346002B11D0364B69
:102D100000221A7035494FF000024FF00003C1E95C
:102D2000002333494FF000024FF00003C1E90023B4
:102D30004BE02D4B01221A70294BD3E900014FF0D3
:102D400000022C4BFDF7F2FC02460B4610461946DA
:102D500021A3D3E90023FDF7BFFB02460B46104633
:102D60001946FDF7B1FE0346184607F0FDFD034680
:102D70001846FDF759FB02460B461C49C1E90023E2
:102D8000184BD3E900014FF000021A4BFDF7CEFCBF
:102D900002460B46104619460FA3D3E90023FDF760
:102DA0009BFB02460B4610461946FDF78DFE034677
:102DB000184607F0D9FD03461846FDF735FB0246D5
:102DC0000B460B49C1E9002300BF00BF0837BD46D1
:102DD00080BD00BFAFF300800000000000F07E4027
:102DE000A8140020B0140020200B0020280B002085
:102DF000300B002000004E4080B582B000AF7860FC
:102E0000054800F011F903461846FFF783F900BFA3
:102E10000837BD4680BD00BF500B002080B582B092
:102E200000AF7860054800F0FFF803461846FFF74A
:102E300032F900BF0837BD4680BD00BF500B0020EF
:102E400080B500AF064800F0FAF80649044800F0E3
:102E500013F90549024800F039F900BF80BD00BFF1
:102E6000500B0020B8140020941400200000000033
:102E70002DE9B04F86B006AF254BD3E90089254B2D
:102E8000D3E90045244BD3E900014FF00002234B66
:102E9000FDF722FB02460B46104619461AA3D3E95A
:102EA0000023FDF743FC02460B4692469B461C4B13
:102EB000D3E900014FF00002184BFDF70DFB02466D
:102EC0000B461046194610A3D3E90023FDF72EFC4C
:102ED00002460B46CDE90423CDE902ABCDE900451E
:102EE00042464B460F49104809F01CFA0F4B0E4A58
:102EF0005A600E490E48FFF775F80E4800F015F9B4
:102F000000BFBD46BDE8B08F0000000000F07E406D
:102F1000400B0020480B0020280B002000004E40F2
:102F2000300B0020D0E50008FC1400208C14002099
:102F300094140020500B002080B485B000AF78605E
:102F400039600023FB600CE0FB68DB003A6822FA82
:102F500003F17A68FB681344CAB21A70FB68013344
:102F6000FB60FB68032BEFD900BF00BF1437BD46E1
:102F700080BC704780B485B000AF786039607B68F2
:102F800000221A600023FB6010E07B681B68396830
:102F9000FA680A4412781146FA68D20001FA02F27D
:102FA0001A437B681A60FB680133FB60FB68032BE4
:102FB000EBD900BF00BF1437BD4680BC704700008E
:102FC00080B483B000AF7860044A7B681A607B6885
:102FD00018460C37BD4680BC704700BF10E700089C
:102FE00080B584B000AFF860B9607A603B60FB6880
:102FF0001846FFF7E5FF0B4AFB681A60FB680C33C5
:103000001846FFF791FCFB687A68DA63FB683A6858
:103010001A64FB68BA689A60FB6818461037BD46A8
:1030200080BD00BF84E6000880B483B000AF786044
:103030007B68043318460C37BD4680BC704780B5AA
:1030400082B000AF78607B6804331846FFF718F849
:103050007B680022C3F8EC287B680022C3F8F028C4
:103060007B680022C3F8F8287B680022C3F8F428A4
:1030700000BF0837BD4680BD80B485B000AF786022
:1030800039600023FB6018E07B68FA6802F22222B4
:1030900053F82230002B0DD17B68FA6802F222220D
:1030A000396843F82210FB6803F164023B685A60F8
:1030B000012306E0FB680133FB60FB68182BE3DDAE
:1030C000002318461437BD4680BC704780B485B0D5
:1030D00000AF786039600023FB601DE07A68FB6810
:1030E00003F502739B0013445B68002B11D17A68CF
:1030F000FB6803F502739B0013443A685A60FB684F
:1031000003F17D023B689A607A683B68DA600123CC
:1031100006E0FB680133FB60FB68182BDEDD002353
:1031200018461437BD4680BC704780B584B000AFE8
:1031300078607B6804331846FFF797F8F8607B687F
:10314000D3F80839FA68D31A42F6F822934203D921
:103150007B68002283F800297B68D3F8EC38002BC9
:1031600009D07B68D3F80C39FA689A4203D97B6896
:103170000022C3F8EC287B68D3F82034002B14D04D
:103180007B6804331846FFF770F80246FB68D21AD2
:103190007B68D3F820349A428CBF01230023DBB232
:1031A000002B02D06FF0010394E17B6804331846D2
:1031B000FEF782FFB860BB68002BC0F274817B68A9
:1031C000D3F8FC28BB681A447B68C3F8FC287B68EA
:1031D000D3F8EC38072B1ED17B68D3F8F838591C8C
:1031E0007A68C2F8F818BA68D1B27A6813440A4605
:1031F00083F824247B68D3F8F0385A1E7B68C3F820
:10320000F0287B68D3F8F038002BB4D17B68082213
:10321000C3F8EC28AFE77B68D3F8EC38002B28D153
:10322000BB68FF2B0DD17B68D3F8EC385A1C7B6848
:10323000C3F8EC28FB6803F114027B68C3F80C297F
:1032400099E77B6804331846FFF70FF80246FB68DE
:10325000D31A41F2883293428CBF01230023DBB2A0
:10326000002B88D07B68002283F800296FF00103CF
:1032700030E17B68D3F8EC38012B18D1BB68FE2B0A
:1032800007D17B68D3F8EC385A1C7B68C3F8EC286C
:1032900071E77B680022C3F8EC287B6893F800395B
:1032A000002B7FF468AF786800F018F963E77B685B
:1032B000D3F8EC38022B13D17B68BA68C3F8F02836
:1032C0007B680022C3F8F8287B68D3F8EC385A1CD6
:1032D0007B68C3F8EC287B68BA68C3F8FC284AE727
:1032E0007B68D3F8EC38032B10D17B68D3F8F02837
:1032F000BB681B021A447B68C3F8F0287B68D3F8CC
:10330000EC385A1C7B68C3F8EC2834E77B68D3F8A8
:10331000EC38042B16D17B68D3F8FC385A42DBB268
:10332000D2B258BF5342FF2B07D17B68D3F8EC3899
:103330005A1C7B68C3F8EC281DE77B680022C3F8A1
:10334000EC2818E77B68D3F8EC38052B0FD17B68A5
:10335000BA68C3F8F4287B68D3F8EC385A1C7B6849
:10336000C3F8EC287B68BA68C3F8FC2803E77B68DD
:10337000D3F8EC38062B17D17B68D3F8F428BB6858
:103380001B021A447B68C3F8F4287B680722C3F841
:10339000EC287B68D3F8F038002B7FF4ECAE7B6828
:1033A0000822C3F8EC28E6E67B68D3F8EC38082B53
:1033B0007FF4E1AE7B680022C3F8EC287B68D3F889
:1033C000FC385A42DBB2D2B258BF5342FF2B7FF4D3
:1033D000D2AE7B68D3F8F438002B10D1786800F0B7
:1033E0007DF8786800F098F87B68FA68C3F80429DB
:1033F0007B68FA68C3F808294FF0FF336AE07B68FE
:10340000D3F8F4380A2B07D17B6803F2244319461A
:10341000786800F061F9AEE67B68D3F8F438062BE3
:103420000ED17B6803F614127B6803F2244319461D
:103430001046FEF738FC7B68012283F810299AE6D3
:103440007B68D3F8F4380B2B04D17B68002283F817
:10345000002990E67B68D3F8F438A3F164027B6816
:1034600002F2222253F82230002B3FF484AE7B6814
:10347000D3F8F438A3F164027B6802F2222253F8F5
:1034800022007B68D3F8F438A3F164027B6802F26F
:10349000222253F822301B681B687A6802F2244209
:1034A0001146984767E600BF7B6893F80039002B08
:1034B0000FD07B68D3F80439FA68D31A40F6C412E7
:1034C000934206D9786800F009F87B68FA68C3F877
:1034D0000429002318461037BD4680BD80B586B04C
:1034E00000AF786007F10C031846FDF747FF7B68D3
:1034F0001B681B6807F10C020A21786898477B68F3
:1035000004331846FEF7B1FE02467B68C3F8142464
:1035100000BF1837BD4680BD90B58BB000AF786056
:1035200007F10C031846FEF713F800237B6262E0F4
:103530007A687B6A03F502739B0013445B68002B77
:1035400056D07A687B6A03F502739B0013445B686C
:103550009B689BB23B827A687B6A03F502739B008F
:1035600013445B681B687B617A687B6A03F50273AE
:103570009B0013445B6859687A687B6A03F50273A1
:103580009B0013445B685B681B6808331B68084634
:1035900098470346BB617A687B6A03F502739B0018
:1035A00013445B6859687A687B6A03F502739B0071
:1035B00013445B685B681B680C331B6808469847BC
:1035C0000346FB614FF400733B627B681B681C6819
:1035D0007A687B6A03F502739B0013445B681846A4
:1035E000FEF714FD014607F10C031A467868A04760
:1035F0007B6A01337B627B6A182B99DD00237B6237
:103600005EE07B687A6A02F2222253F82230002BB5
:1036100053D07B687A6A02F2222253F822305B6828
:103620009BB23B827B687A6A02F2222253F82230F4
:103630009B687B617B687A6A02F2222253F822102F
:103640007B687A6A02F2222253F822301B68083320
:103650001B68084698470346BB617B687A6A02F29A
:10366000222253F822107B687A6A02F2222253F84F
:1036700022301B680C331B68084698470346FB61E1
:103680004FF400733B627B681B681C687B687A6A36
:1036900002F2222253F822107B687A6A02F2222276
:1036A00053F822301B6804331B68084698470146CC
:1036B00007F10C031A467868A0477B6A01337B62E6
:1036C0007B6A182B9DDD7B68012283F8002900BFEF
:1036D0002C37BD4690BD000080B586B000AF786045
:1036E000396007F108031846FDF748FE7B6804338C
:1036F0001846FEF7BAFD02467B68D3F81434D31A95
:103700007B6107F1080339681846FDF7A6FEFA68E1
:103710007B691549A1FB03139B091344FB603969BD
:103720007A69114BA3FB02039B094FF47A7000FBEB
:1037300003F3D31A0D4A02FB03F30B443B6107F179
:10374000080304331946786800F0A6F87B68043350
:103750001846FEF78AFD02467B68C3F8082900BFB9
:103760001837BD4680BD00BFD34D621040420F00E8
:1037700080B588B000AFF860B9607A60BB68632B31
:1037800009DDFB6893F8003983F00103DBB2002BFD
:1037900001D0002379E07B681B681B68FA6802F29D
:1037A000246207321146786898477861FB68FF22E7
:1037B00083F82426FB68FE2283F825267B69DAB28B
:1037C000FB6883F826267B699BB21B0A9BB2DAB2A0
:1037D000FB6883F82726FB6893F82626FB6893F896
:1037E00027361344DBB2DB43DAB2FB6883F82826C2
:1037F000BB68DAB2FB6883F82926BB681BB21B12D0
:103800001BB2DAB2FB6883F82A260023FB6105238A
:10381000BB610CE0FA68BB69134403F224631B78B4
:103820001A46FB691344FB61BB690133BB617B69C9
:103830000633BA699A42EDDD7B6907337B61FB6928
:103840005A42DBB2D2B258BF5342DAB27B69591C3A
:103850007961D243D1B2FA6813440A4683F8242628
:103860007B69B3F5007F0ADCFB68181DFB6803F277
:1038700024637A691946FEF7ABFC7B6905E00549CC
:10388000F86800F049F84FF0FF3318462037BD467E
:1038900080BD00BFE0E5000880B584B000AF78606F
:1038A00039607B6804331846FEF7DFFCF8603B683C
:1038B0001A68FB681549A1FB03139B09D31A5A1E0A
:1038C0007B68C3F818243B685968FA680F4BA3FB60
:1038D00002039B094FF47A7000FB03F3D31A0C4ADE
:1038E00002FB03F3CA1A0B4B13447A68C2F81C3468
:1038F0007B6803F583627B6803F21C43194610461C
:1039000000F03EFC00BF1037BD4680BDD34D6210B5
:1039100040420F0000CA9A3B80B582B000AF786089
:1039200039603A680321786800F004F800BF08376E
:10393000BD4680BD80B588B000AFF8600B467A60A8
:10394000FB7207F114031846FDF7C2FFFB7A3B76C2
:103950007B68FB61FB681B681B6807F11402072189
:10396000F868984700BF2037BD4680BD80B582B05B
:1039700000AF786039607B68012B16D13B684FF649
:10398000FF72934211D10B48FFF714F90A48FEF772
:1039900077FC0023084A09490948FEF70DFB01237B
:1039A000084A09490948FFF71BFB00BF0837BD4615
:1039B00080BD00BF500B00208C1400201CE60008C6
:1039C00094140020A92C000828E60008B814002050
:1039D00080B582B000AF786039607B680C3339689D
:1039E0001846FFF733F87B68DB6B7A680C321046B9
:1039F000984700BF0837BD4680BD80B483B000AF94
:103A000078607B681B6C18460C37BD4680BC7047DD
:103A100080B582B000AF78607B680C331846FFF742
:103A2000A1F8034618460837BD4680BD80B582B070
:103A300000AF78607B680C331846FFF79FF80346A9
:103A400018460837BD4680BD80B483B000AF7860AB
:103A50007B6893F8003918460C37BD4680BC704728
:103A600080B500AF4FF6FF710120FFF77FFF80BDEB
:103A700080B584B000AF184B9B69174A43F001032F
:103A80009361154B9B6903F00103BB60BB68124B4C
:103A9000DB69114A43F08053D3610F4BDB6903F0BC
:103AA00080537B607B6800220F216FF0010000F0E3
:103AB000D6FD0A4B5B68FB60FB6823F0E063FB60AC
:103AC000FB6843F00073FB60044AFB68536000BF6F
:103AD0001037BD4680BD00BF00100240000001400D
:103AE00080B58CB000AF78600023BB6200237B629E
:103AF000002387F82F302E4B9B692D4A43F4006337
:103B000093612B4B9B6903F40063BB60BB6807F1B7
:103B10000C0207F110031146184601F0FBFD01F0FD
:103B2000E5FDB862BB6A234AA2FB03239B0C013B61
:103B30007B62214B214A1A601F4B40F2E732DA6068
:103B40001D4A7B6A53601C4B00221A611A4B0022EB
:103B50009A60194B00229A61174801F029FE03462A
:103B600087F82F3097F82F30002B1BD1124801F027
:103B700077FE034687F82F3097F82F30002B11D1AE
:103B8000192000F088FD7B680F2B08D80022796887
:103B9000192000F064FD0A4A7B68136002E00123EB
:103BA00087F82F3097F82F3018463037BD4680BD44
:103BB0000010024083DE1B4360150020002C0140F2
:103BC0002400002080B400AF00BFFDE780B400AF48
:103BD00000BFFDE780B400AF00BFFDE780B400AFD9
:103BE00000BFFDE780B400AF00BFFDE780B400AFC9
:103BF00000BFBD4680BC704780B500AF024800F0F2
:103C0000C7FE00BF80BD00BF5817002080B500AFC1
:103C1000024800F0BDFE00BF80BD00BF14170020A9
:103C200080B500AF024802F08FF800BF80BD00BF32
:103C30006015002080B500AF024802F0D7FD00BF3C
:103C400080BD00BF8416002080B400AF0123184659
:103C5000BD4680BC704780B582B000AF78603960E7
:103C600008F06AFC034616221A604FF0FF3318462C
:103C70000837BD4680BD80B582B000AF78604FF098
:103C8000FF317868FFF7E7FF00BFFDE780B586B03A
:103C900000AFF860B9607A6000237B610AE0AFF39F
:103CA00000800146BB685A1CBA60CAB21A707B69B0
:103CB00001337B617A697B689A42F0DB7B68184646
:103CC0001837BD4680BD80B586B000AFF860B960DA
:103CD0007A6000237B6109E0BB685A1CBA601B78DC
:103CE0001846AFF300807B6901337B617A697B689A
:103CF0009A42F1DB7B6818461837BD4680BD80B418
:103D000083B000AF78604FF0FF3318460C37BD46E4
:103D100080BC704780B483B000AF786039603B6886
:103D20004FF400525A60002318460C37BD4680BC41
:103D3000704780B483B000AF7860012318460C3719
:103D4000BD4680BC704780B485B000AFF860B960F4
:103D50007A60002318461437BD4680BC70470000C7
:103D600080B586B000AF7860144A154BD31A7B61DA
:103D70007B693B61134B1B68002B02D1114B124A2C
:103D80001A60104B1A687B6813443A699A4207D24A
:103D900008F0D2FB03460C221A604FF0FF3309E013
:103DA000084B1B68FB60074B1A687B681344054A85
:103DB0001360FB6818461837BD4680BD00500020D0
:103DC00000040000A81500207827002080B400AF70
:103DD00000BFBD4680BC704780B58EB000AF364A8C
:103DE00007F12C0307CA83E8070007F1240207F153
:103DF000280107F12C03184603F0F2FC07F11C031D
:103E000000221A605A603B4600221A605A609A608B
:103E1000DA601A615A619A61284B4FF080421A6049
:103E2000264B00225A60254B00229A60234B4FF606
:103E3000FF72DA60214B00221A61204B00229A6146
:103E40001E4801F05FFD0346002B01D0FDF770FA1C
:103E50000023FB6100233B6207F11C03194617484E
:103E600002F06EFB0346002B01D0FDF761FA6023E0
:103E70003B6000237B600023BB6000233B613B462B
:103E8000002219460D4802F067F80346002B01D0C6
:103E9000FDF74EFA3B4604221946084802F05CF84A
:103EA0000346002B01D0FDF743FA044800F038F92F
:103EB00000BF3837BD4680BD38E60008AC1500208D
:103EC00080B58CB000AF07F10C0324220021184606
:103ED00008F08BFA3B1D00221A605A60204B214AE1
:103EE0001A601F4B00225A601D4B00229A601C4B27
:103EF0004FF6FF72DA601A4B00221A61184B00224B
:103F00009A610123FB6000233B6101237B61002355
:103F1000BB610023FB6100233B6201237B62002322
:103F2000BB620023FB6207F10C0319460C4801F049
:103F3000DBFD0346002B01D0FDF7FAF900237B607F
:103F40000023BB603B1D1946054802F0F9FA034601
:103F5000002B01D0FDF7ECF900BF3037BD4680BD26
:103F6000F41500200004004080B58CB000AF07F1CC
:103F70000C0324220021184608F037FA3B1D0022CA
:103F80001A605A60204B214A1A601F4B00225A6067
:103F90001D4B00229A601C4B4FF6FF72DA601A4BE1
:103FA00000221A61184B00229A610123FB60002352
:103FB0003B6101237B610023BB610023FB61002384
:103FC0003B6201237B620023BB620023FB6207F19B
:103FD0000C0319460C4801F087FD0346002B01D065
:103FE000FDF7A6F900237B600023BB603B1D19464B
:103FF000054802F0A5FA0346002B01D0FDF798F919
:1040000000BF3037BD4680BD3C1600200008004090
:1040100080B485B000AF78607B681B68B3F1804FD7
:104020000BD1084BDB69074A43F00103D361054B11
:10403000DB6903F00103FB60FB6800BF1437BD467A
:1040400080BC70470010024080B58AB000AF786035
:1040500007F1180300221A605A609A60DA607B68E0
:104060001B682A4A934224D1294BDB69284A43F032
:104070000203D361264BDB6903F002037B617B699A
:10408000234B9B69224A43F004039361204B9B69B5
:1040900003F004033B613B69C023BB610023FB6168
:1040A00000233B6207F1180319461A4800F0A4FDEB
:1040B00028E07B681B68184A934223D1144BDB69C4
:1040C000134A43F00403D361114BDB6903F004038B
:1040D000FB60FB680E4B9B690D4A43F0080393613C
:1040E0000B4B9B6903F00803BB60BB68C023BB613B
:1040F0000023FB6100233B6207F1180319460748C0
:1041000000F07AFD00BF2837BD4680BD00040040A6
:10411000001002400008014000080040000C01406F
:1041200080B588B000AF786007F1100300221A60F4
:104130005A609A60DA607B681B68B3F1804F17D1D0
:104140000D4B9B690C4A43F0040393610A4B9B6936
:1041500003F00403FB60FB6803233B6102237B61E4
:104160000223FB6107F110031946044800F044FDE7
:1041700000BF2037BD4680BD00100240000801404E
:1041800080B485B000AF786039603B681B685A0A1C
:104190000F49A1FB0212D2090E4901FB02F29B1A40
:1041A000FB603B681B685B0A094AA2FB0323DB092F
:1041B000BB607B681A68BB681A447B681A603B68FE
:1041C000FA681A6000BF1437BD4680BC704700BF54
:1041D000834B040000CA9A3B80B500AF114B124AD2
:1041E0001A60104B4FF461425A600E4B00229A60E5
:1041F0000C4B0022DA600B4B00221A61094B0C2297
:104200005A61084B00229A61064B0022DA61054888
:1042100002F006FA0346002B01D0FDF789F800BF33
:1042200080BD00BF841600200038014080B500AF7B
:10423000114B124A1A60104B4FF4E1325A600E4B88
:1042400000229A600C4B0022DA600B4B00221A61AC
:10425000094B0C225A61084B00229A61064B00223E
:10426000DA61054802F0DCF90346002B01D0FDF7C6
:104270005FF800BF80BD00BFCC16002000440040A6
:1042800080B58AB000AF786007F1180300221A6089
:104290005A609A60DA607B681B68624A934240F019
:1042A0008780614B9B69604A43F4804393615E4B16
:1042B0009B6903F480437B617B695B4B9B695A4A32
:1042C00043F004039361584B9B6903F004033B6183
:1042D0003B694FF40073BB610223FB6103237B62E4
:1042E00007F118031946514800F086FC4FF480632B
:1042F000BB610023FB6100233B6207F118031946F1
:104300004A4800F079FC4A4B4A4A1A60484B00225E
:104310005A60474B00229A60454B8022DA60444B3A
:1043200000221A61424B00225A61414B00229A61DD
:104330003F4B0022DA613E4800F0BCF90346002BF7
:1043400001D0FCF7F5FF7B68394ADA63384A7B68AD
:104350005362394B394A1A60374B10225A60364B38
:1043600000229A60344B8022DA60334B00221A61BB
:10437000314B00225A61304B00229A612E4B0022B1
:10438000DA612D4800F096F90346002B01D0FCF7C6
:10439000CFFF7B68284A9A63274A7B6853620022D2
:1043A0000521252000F05BF9252000F074F934E0A8
:1043B0007B681B68224A93422FD11B4BDB691A4A48
:1043C00043F40033D361184BDB6903F40033FB6023
:1043D000FB68154B9B69144A43F004039361124B2D
:1043E0009B6903F00403BB60BB680423BB61022329
:1043F000FB6103237B6207F1180319460B4800F0A9
:10440000FBFB0823BB610023FB6100233B6207F138
:1044100018031946054800F0EFFB00BF2837BD46DA
:1044200080BD00BF0038014000100240000801407C
:104430001417002058000240581700204400024082
:1044400000440040FFF7C2FC0B480C490C4A002313
:1044500002E0D458C4500433C4188C42F9D3094A3A
:10446000094C002301E013600432A242FBD308F0A0
:1044700069F8FCF73DFE70470000002008020020AC
:104480008CEB00080802002078270020FEE70000DF
:1044900080B500AF084B1B68074A43F01003136058
:1044A000032000F0D1F80F20FFF71AFBFFF7E0FA26
:1044B0000023184680BD00BF0020024080B400AF3A
:1044C000054B1B781A46054B1B681344034A1360BF
:1044D00000BFBD4680BC7047280000209C1700200C
:1044E00080B400AF024B1B681846BD4680BC7047C5
:1044F0009C17002080B485B000AF78607B6803F023
:104500000703FB600C4BDB68BB60BA684FF6FF0328
:104510001340BB60FB681A02BB68134343F0BF63E0
:1045200043F40033BB60044ABB68D36000BF143758
:10453000BD4680BC704700BF00ED00E080B400AF16
:10454000044BDB681B0A03F007031846BD4680BC1A
:10455000704700BF00ED00E080B483B000AF0346B9
:10456000FB7197F90730002B0BDBFB7903F01F027F
:10457000064997F907305B09012000FA02F241F879
:10458000232000BF0C37BD4680BC704700E100E02F
:1045900080B483B000AF03463960FB7197F90730F0
:1045A000002B0ADB3B68DAB20C4997F9073012019D
:1045B000D2B20B4483F800230AE03B68DAB2084920
:1045C000FB7903F00F03043B1201D2B20B441A76BD
:1045D00000BF0C37BD4680BC704700BF00E100E063
:1045E00000ED00E080B489B000AFF860B9607A6097
:1045F000FB6803F00703FB61FB69C3F10703042BAE
:1046000028BF0423BB61FB690433062B02D9FB6975
:10461000033B00E000237B614FF0FF32BB6902FAED
:1046200003F3DA43BB681A407B699A404FF0FF31CD
:104630007B6901FA03F3D9437B680B4013431846A7
:104640002437BD4680BC704780B582B000AF78602B
:104650007868FFF74FFF00BF0837BD4680BD80B5C3
:1046600086B000AF0346B9607A60FB7300237B61BC
:10467000FFF764FF78617A68B9687869FFF7B2FF7D
:10468000024697F90F3011461846FFF781FF00BF29
:104690001837BD4680BD80B582B000AF0346FB71C0
:1046A00097F907301846FFF757FF00BF0837BD4698
:1046B00080BD000080B485B000AF78600023FB604F
:1046C0007B68002B01D1012343E07B681B681A46FD
:1046D000224B1344224AA2FB03231B099A007B6846
:1046E0001A647B681F4ADA637B68022283F8212000
:1046F0007B681B681B68FB60FB6823F47F5323F017
:104700003003FB607B685A687B689B681A437B6850
:10471000DB681A437B681B691A437B685B691A4331
:104720007B689B691A437B68DB691343FA68134310
:10473000FB607B681B68FA681A607B6800229A63DA
:104740007B68012283F821207B68002283F82020E7
:10475000002318461437BD4680BC7047F8FFFDBFE4
:10476000CDCCCCCC0000024080B586B000AFF86064
:10477000B9607A603B600023FB75FB6893F82030DA
:10478000012B01D102234BE0FB68012283F820209A
:10479000FB6893F82130DBB2012B3AD1FB6802228F
:1047A00083F82120FB6800229A63FB681B681A6863
:1047B000FB681B6822F001021A603B687A68B968DE
:1047C000F86800F0EBF9FB68DB6A002B08D0FB68A7
:1047D0001B681A68FB681B6842F00E021A600FE043
:1047E000FB681B681A68FB681B6822F004021A60E9
:1047F000FB681B681A68FB681B6842F00A021A60B3
:10480000FB681B681A68FB681B6842F001021A60AB
:1048100005E0FB68002283F820200223FB75FB7D66
:1048200018461837BD4680BD80B485B000AF7860AB
:104830000023FB737B6893F82130DBB2022B08D096
:104840007B6804229A637B68002283F8202001237E
:1048500020E07B681B681A687B681B6822F00E02E8
:104860001A607B681B681A687B681B6822F001026B
:104870001A607B681A6C7B68DB6B012101FA02F21B
:104880005A607B68012283F821207B68002283F82C
:104890002020FB7B18461437BD4680BC70470000C3
:1048A00080B584B000AF78600023FB737B6893F819
:1048B0002130DBB2022B05D07B6804229A630123EE
:1048C000FB7351E07B681B681A687B681B6822F0E9
:1048D0000E021A607B681B681A687B681B6822F0EE
:1048E00001021A607B681B68224A934229D07B68C8
:1048F0001B68214A934222D07B681B681F4A93425F
:104900001AD07B681B681E4A934212D07B681B68D2
:104910001C4A93420AD07B681B681B4A934202D10F
:104920004FF480130EE04FF080730BE04FF48033B0
:1049300008E04FF4805305E04FF4807302E0102349
:1049400000E00123114A53607B68012283F8212093
:104950007B68002283F820207B685B6B002B03D0F0
:104960007B685B6B78689847FB7B18461037BD46C1
:1049700080BD00BF080002401C0002403000024021
:1049800044000240580002406C0002400000024017
:1049900080B584B000AF78607B68DB6B1B68FB6020
:1049A0007B681B681B68BB607B681B6C04229A4099
:1049B000FB681340002B4FD0BB6803F00403002BAF
:1049C0004AD07B681B681B6803F02003002B07D1CB
:1049D0007B681B681A687B681B6822F004021A60F7
:1049E0007B681B68664A934229D07B681B68654ACE
:1049F000934222D07B681B68634A93421AD07B683B
:104A00001B68624A934212D07B681B68604A9342DB
:104A10000AD07B681B685F4A934202D14FF480033F
:104A20000EE04FF080630BE04FF4802308E04FF47A
:104A3000804305E04FF4806302E0402300E004235C
:104A4000554A53607B68DB6A002B00F094807B68DA
:104A5000DB6A786898478EE07B681B6C02229A407C
:104A6000FB681340002B56D0BB6803F00203002BF9
:104A700051D07B681B681B6803F02003002B0BD10F
:104A80007B681B681A687B681B6822F00A021A6040
:104A90007B68012283F821207B681B68384A934297
:104AA00029D07B681B68374A934222D07B681B68F9
:104AB000354A93421AD07B681B68344A934212D01D
:104AC0007B681B68324A93420AD07B681B68314A74
:104AD000934202D14FF400130EE04FF000730BE04D
:104AE0004FF4003308E04FF4005305E04FF4007337
:104AF00002E0202300E00223274A53607B68002263
:104B000083F820207B689B6A002B34D07B689B6AEB
:104B1000786898472FE07B681B6C08229A40FB68F6
:104B20001340002B28D0BB6803F00803002B23D0D0
:104B30007B681B681A687B681B6822F00E021A608B
:104B40007B681A6C7B68DB6B012101FA02F25A6008
:104B50007B6801229A637B68012283F821207B68AD
:104B6000002283F820207B681B6B002B04D07B681D
:104B70001B6B7868984700BF00BF1037BD4680BDEB
:104B8000080002401C000240300002404400024085
:104B9000580002406C0002400000024080B485B022
:104BA00000AFF860B9607A603B60FB681A6CFB6824
:104BB000DB6B012101FA02F25A60FB681B683A685C
:104BC0005A60FB685B68102B08D1FB681B687A6829
:104BD0009A60FB681B68BA68DA6007E0FB681B68CC
:104BE000BA689A60FB681B687A68DA6000BF14379D
:104BF000BD4680BC7047000080B48BB000AF7860C9
:104C0000396000237B6200233B6269E101227B6AF9
:104C100002FA03F3FB613B681B68FA691340BB614E
:104C2000BA69FB699A4240F058813B685B689A4ACE
:104C300093425ED0984A934275D8984A934258D08E
:104C4000964A93426FD8964A934252D0944A9342DE
:104C500069D8944A93424CD0924A934263D8924A7C
:104C6000934246D0904A93425DD8122B2AD8122BF9
:104C700059D801A252F823F0F34C0008CD4C00089B
:104C8000DF4C0008214D0008274D0008274D000883
:104C9000274D0008274D0008274D0008274D000824
:104CA000274D0008274D0008274D0008274D000814
:104CB000274D0008274D0008274D0008D54C000857
:104CC000E94C0008794A934213D02CE03B68DB683A
:104CD0003B6229E03B68DB6804333B6224E03B68CD
:104CE000DB6808333B621FE03B68DB680C333B62E8
:104CF0001AE03B689B68002B02D104233B6213E05F
:104D00003B689B68012B05D108233B627B68FA69ED
:104D10001A6109E008233B627B68FA695A6103E083
:104D200000233B6200E000BFBB69FF2B01D87B681A
:104D300001E07B6804337B61BB69FF2B02D87B6A8F
:104D40009B0002E07B6A083B9B003B617B691A6821
:104D50000F213B6901FA03F3DB431A40396A3B69CF
:104D600001FA03F31A437B691A603B685B6803F03E
:104D70008053002B00F0B1804D4B9B694C4A43F0AF
:104D8000010393614A4B9B6903F00103BB60BB685D
:104D9000484A7B6A9B08023352F82330FB607B6AE7
:104DA00003F003039B000F2202FA03F3DB43FA68CC
:104DB0001340FB607B68404A934213D07B683F4AB4
:104DC00093420DD07B683E4A934207D07B683D4AB0
:104DD000934201D1032306E0042304E0022302E00E
:104DE000012300E000237A6A02F00302920093405C
:104DF000FA681343FB602F497B6A9B080233FA6809
:104E000041F823203B685B6803F48013002B06D035
:104E10002D4B9A682C49BB6913438B6006E02A4BE3
:104E20009A68BB69DB43284913408B603B685B6829
:104E300003F40013002B06D0234BDA682249BB6928
:104E40001343CB6006E0204BDA68BB69DB431E49A5
:104E50001340CB603B685B6803F40033002B06D043
:104E6000194B5A681849BB6913434B6006E0164B4F
:104E70005A68BB69DB43144913404B603B685B686D
:104E800003F48033002B21D00F4B1A680E49BB6905
:104E900013430B6021E000BF00003210000031100E
:104EA000000022100000211000001210000011105C
:104EB000001002400000014000080140000C0140C9
:104EC0000010014000140140000401400B4B1A681F
:104ED000BB69DB43094913400B607B6A01337B628A
:104EE0003B681A687B6A22FA03F3002B7FF48EAECC
:104EF00000BF00BF2C37BD4680BC70470004014096
:104F000080B483B000AF78600B467B8013467B7023
:104F10007B78002B03D07A887B681A6103E07B885A
:104F20001A047B681A6100BF0C37BD4680BC70470D
:104F300080B586B000AF78607B68002B01D101237B
:104F400072E27B681B6803F00103002B00F087808E
:104F5000924B5B6803F00C03042B0CD08F4B5B6807
:104F600003F00C03082B12D18C4B5B6803F48033E5
:104F7000B3F5803F0BD1894B1B6803F40033002B42
:104F80006CD07B685B68002B68D101234CE27B68A6
:104F90005B68B3F5803F06D1804B1B687F4A43F4C2
:104FA000803313602EE07B685B68002B0CD17B4B59
:104FB0001B687A4A23F480331360784B1B68774A66
:104FC00023F4802313601DE07B685B68B3F5A02F9A
:104FD0000CD1724B1B68714A43F4802313606F4BF2
:104FE0001B686E4A43F4803313600BE06B4B1B6805
:104FF0006A4A23F480331360684B1B68674A23F4C2
:10500000802313607B685B68002B13D0FFF768FA7E
:10501000386108E0FFF764FA02463B69D31A642B53
:1050200001D9032300E25D4B1B6803F40033002B1E
:10503000F0D014E0FFF754FA386108E0FFF750FAB7
:1050400002463B69D31A642B01D90323ECE1534B8D
:105050001B6803F40033002BF0D100E000BF7B6835
:105060001B6803F00203002B63D04C4B5B6803F01A
:105070000C03002B0BD0494B5B6803F00C03082B8F
:105080001CD1464B5B6803F48033002B16D1434B95
:105090001B6803F00203002B05D07B681B69012B02
:1050A00001D00123C0E13D4B1B6823F0F8027B686F
:1050B0005B69DB00394913430B603AE07B681B698D
:1050C000002B20D0364B01221A60FFF709FA386115
:1050D00008E0FFF705FA02463B69D31A022B01D913
:1050E0000323A1E12D4B1B6803F00203002BF0D03A
:1050F0002A4B1B6823F0F8027B685B69DB002749B9
:1051000013430B6015E0264B00221A60FFF7E8F905
:10511000386108E0FFF7E4F902463B69D31A022B35
:1051200001D9032380E11D4B1B6803F00203002B10
:10513000F0D17B681B6803F00803002B3AD07B6832
:105140009B69002B19D0174B01221A60FFF7C8F991
:10515000386108E0FFF7C4F902463B69D31A022B15
:1051600001D9032360E10D4B5B6A03F00203002BBE
:10517000F0D0012000F0FEFA1CE00A4B00221A6079
:10518000FFF7AEF938610FE0FFF7AAF902463B6975
:10519000D31A022B08D9032346E100BF00100240B6
:1051A0000000424280044242924B5B6A03F00203D9
:1051B000002BE9D17B681B6803F00403002B00F08F
:1051C000A6800023FB758B4BDB6903F08053002B1B
:1051D0000DD1884BDB69874A43F08053D361854BFF
:1051E000DB6903F08053BB60BB680123FB75824B16
:1051F0001B6803F48073002B18D17F4B1B687E4A19
:1052000043F480731360FFF76BF9386108E0FFF730
:1052100067F902463B69D31A642B01D9032303E1E2
:10522000754B1B6803F48073002BF0D07B68DB6840
:10523000012B06D16F4B1B6A6E4A43F001031362C8
:105240002DE07B68DB68002B0CD16A4B1B6A694A36
:1052500023F001031362674B1B6A664A23F00403C1
:1052600013621CE07B68DB68052B0CD1614B1B6A69
:10527000604A43F0040313625E4B1B6A5D4A43F0CD
:10528000010313620BE05B4B1B6A5A4A23F00103D4
:105290001362584B1B6A574A23F0040313627B685E
:1052A000DB68002B15D0FFF71BF938610AE0FFF728
:1052B00017F902463B69D31A41F28832934201D969
:1052C0000323B1E04B4B1B6A03F00203002BEED02B
:1052D00014E0FFF705F938610AE0FFF701F902462B
:1052E0003B69D31A41F28832934201D903239BE0F0
:1052F000404B1B6A03F00203002BEED1FB7D012B18
:1053000005D13C4BDB693B4A23F08053D3617B687A
:10531000DB69002B00F08780364B5B6803F00C03E1
:10532000082B61D07B68DB69022B46D1334B00220E
:105330001A60FFF7D5F8386108E0FFF7D1F80246A8
:105340003B69D31A022B01D903236DE0294B1B685B
:1053500003F00073002BF0D17B681B6AB3F5803F2C
:1053600008D1244B5B6823F400327B689B68214999
:1053700013434B601F4B5B6823F474127B68196AFC
:105380007B685B6A0B431B4913434B601B4B012239
:105390001A60FFF7A5F8386108E0FFF7A1F80246A8
:1053A0003B69D31A022B01D903233DE0114B1B6843
:1053B00003F00073002BF0D035E0104B00221A6090
:1053C000FFF78EF8386108E0FFF78AF802463B697C
:1053D000D31A022B01D9032326E0064B1B6803F0E6
:1053E0000073002BF0D11EE07B68DB69012B07D135
:1053F000012319E0001002400070004060004242AA
:105400000B4B5B68FB60FB6803F480327B681B6AB4
:105410009A4206D1FB6803F470127B685B6A9A4279
:1054200001D0012300E0002318461837BD4680BD97
:105430000010024080B584B000AF786039607B68AE
:10544000002B01D10123D0E06A4B1B6803F0070356
:105450003A689A4210D9674B1B6823F007026549E6
:105460003B6813430B60634B1B6803F007033A6808
:105470009A4201D00123B8E07B681B6803F0020365
:10548000002B20D07B681B6803F00403002B05D0A1
:10549000594B5B68584A43F4E06353607B681B6870
:1054A00003F00803002B05D0534B5B68524A43F4CA
:1054B00060535360504B5B6823F0F0027B689B683D
:1054C0004D4913434B607B681B6803F00103002BBD
:1054D00040D07B685B68012B07D1474B1B6803F406
:1054E0000033002B15D101237FE07B685B68022B22
:1054F00007D1414B1B6803F00073002B09D1012336
:1055000073E03D4B1B6803F00203002B01D1012324
:105510006BE0394B5B6823F003027B685B683649BC
:1055200013434B60FEF7DCFFF8600AE0FEF7D8FF9C
:105530000246FB68D31A41F28832934201D9032311
:1055400053E02D4B5B6803F00C027B685B689B00AB
:105550009A42EBD1274B1B6803F007033A689A4243
:1055600010D2244B1B6823F0070222493B681343E7
:105570000B60204B1B6803F007033A689A4201D086
:10558000012332E07B681B6803F00403002B08D082
:10559000194B5B6823F4E0627B68DB6816491343B0
:1055A0004B607B681B6803F00803002B09D0124B8B
:1055B0005B6823F460527B681B69DB000E49134370
:1055C0004B6000F021F802460B4B5B681B0903F0AF
:1055D0000F030A49CB5C22FA03F3094A1360094B13
:1055E0001B681846FEF77CFA002318461037BD46A4
:1055F00080BD00BF0020024000100240ACE7000860
:10560000200000202400002080B487B000AF0023D9
:10561000FB600023BB6000237B6100237B600023D1
:105620003B611E4B5B68FB60FB6803F00C03042BC3
:1056300002D0082B03D027E0194B3B6127E0FB6821
:105640009B0C03F00F03174AD35C7B60FB6803F4E9
:105650008033002B10D0114B5B685B0C03F001030F
:10566000114AD35CBB607B680D4A03FB02F2BB6846
:10567000B2FBF3F37B6104E07B680C4A02FB03F3AB
:105680007B617B693B6102E0054B3B6100BF3B698D
:1056900018461C37BD4680BC704700BF0010024052
:1056A00000127A00C4E70008D4E7000800093D00B2
:1056B00080B400AF024B1B681846BD4680BC7047E3
:1056C0002000002080B500AFFFF7F2FF0246054B37
:1056D0005B681B0A03F007030349CB5C22FA03F360
:1056E000184680BD00100240BCE7000880B500AF3E
:1056F000FFF7DEFF0246054B5B68DB0A03F007039A
:105700000349CB5C22FA03F3184680BD0010024027
:10571000BCE7000880B483B000AF786039607B6874
:105720000F221A60114B5B6803F003027B685A601A
:105730000E4B5B6803F0F0027B689A600B4B5B6872
:1057400003F4E0627B68DA60084B5B68DB0803F413
:10575000E0627B681A61064B1B6803F007023B6836
:105760001A6000BF0C37BD4680BC70470010024075
:105770000020024080B485B000AF78600A4B1B68FF
:105780000A4AA2FB03235B0A7A6802FB03F3FB606D
:1057900000BFFB685A1EFA60002BF9D100BF00BFA2
:1057A0001437BD4680BC704720000020D34D6210E6
:1057B00080B582B000AF78607B68002B01D10123F7
:1057C00041E07B6893F83D30DBB2002B06D17B686B
:1057D000002283F83C20786800F039F87B680222C8
:1057E00083F83D207B681A687B68043319461046AD
:1057F00000F098FC7B68012283F846207B68012238
:1058000083F83E207B68012283F83F207B680122D9
:1058100083F840207B68012283F841207B680122C5
:1058200083F842207B68012283F843207B680122B1
:1058300083F844207B68012283F845207B6801229D
:1058400083F83D20002318460837BD4680BD80B44C
:1058500083B000AF786000BF0C37BD4680BC704796
:1058600080B485B000AF78607B6893F83D30DBB2E0
:10587000012B01D001233AE07B68022283F83D200E
:105880007B681B68DA687B681B6842F00102DA609B
:105890007B681B68184A93420ED07B681B68B3F183
:1058A000804F09D07B681B68144A934204D07B6800
:1058B0001B68134A934211D17B681B689B6803F0F5
:1058C0000703FB60FB68062B10D07B681B681A6817
:1058D0007B681B6842F001021A6007E07B681B6866
:1058E0001A687B681B6842F001021A6000231846A0
:1058F0001437BD4680BC7047002C014000040040B6
:105900000008004080B582B000AF78607B68002B53
:1059100001D1012341E07B6893F83D30DBB2002BDD
:1059200006D17B68002283F83C207868FEF770FB84
:105930007B68022283F83D207B681A687B68043309
:105940001946104600F0EEFB7B68012283F84620E2
:105950007B68012283F83E207B68012283F83F2088
:105960007B68012283F840207B68012283F8412074
:105970007B68012283F842207B68012283F8432060
:105980007B68012283F844207B68012283F845204C
:105990007B68012283F83D20002318460837BD4666
:1059A00080BD000080B584B000AF786039603B688E
:1059B000002B09D17B6893F83E30DBB2012B14BF7A
:1059C00001230023DBB222E03B68042B09D17B6872
:1059D00093F83F30DBB2012B14BF01230023DBB26D
:1059E00015E03B68082B09D17B6893F84030DBB2A7
:1059F000012B14BF01230023DBB208E07B6893F87E
:105A00004130DBB2012B14BF01230023DBB2002B9A
:105A100001D001235EE03B68002B04D17B680222A9
:105A200083F83E2013E03B68042B04D17B680222FC
:105A300083F83F200BE03B68082B04D17B680222EF
:105A400083F8402003E07B68022283F841207B68D2
:105A50001B6801223968184600F04EFD7B681B6800
:105A60001E4A934207D17B681B685A6C7B681B688F
:105A700042F400425A647B681B68184A93420ED075
:105A80007B681B68B3F1804F09D07B681B68144AA0
:105A9000934204D07B681B68124A934211D17B6801
:105AA0001B689B6803F00703FB60FB68062B10D0A4
:105AB0007B681B681A687B681B6842F001021A60E9
:105AC00007E07B681B681A687B681B6842F001026C
:105AD0001A60002318461037BD4680BD002C0140D7
