:020000040800F2
:1000000000500020F927000851230008532300085E
:10001000552300085723000859230008000000005A
:10002000000000000000000000000000B15F0008B8
:100030005B230008000000004160000885600008A4
:1000400041280008412800084128000841280008EC
:1000500041280008412800084128000841280008DC
:1000600041280008412800084128000841280008CC
:1000700041280008412800085D2300086923000882
:1000800041280008412800084128000841280008AC
:10009000412800084128000841280008412800089C
:1000A000412800087523000841280008412800085D
:1000B000412800084128000841280008412800087C
:1000C000412800084128000841280008412800086C
:1000D0004128000881230008412800084128000821
:1000E00041280008412800084128000800000000BD
:1000F0000000000000000000000000000000000000
:0C01000000000000000000005FF808F1A3
:1001100010B5054C237833B9044B13B10448AFF341
:1001200000800123237010BD90000020000000001B
:10013000807B000808B5034B1BB103490348AFF3AC
:10014000008008BD0000000094000020807B0008B3
:10015000034613F8012B002AFBD1181A0138704707
:1001600081F0004102E000BF83F0004330B54FEA68
:1001700041044FEA430594EA050F08BF90EA020FD5
:100180001FBF54EA000C55EA020C7FEA645C7FEA68
:10019000655C00F0E2804FEA5454D4EB5555B8BF8B
:1001A0006D420CDD2C4480EA020281EA030382EAFC
:1001B000000083EA010180EA020281EA0303362D8E
:1001C00088BF30BD11F0004F4FEA01314FF4801C61
:1001D0004CEA113102D0404261EB410113F0004F73
:1001E0004FEA03334CEA133302D0524263EB43032A
:1001F00094EA050F00F0A780A4F10104D5F1200EC8
:100200000DDB02FA0EFC22FA05F2801841F1000122
:1002100003FA0EF2801843FA05F359410EE0A5F1F6
:1002200020050EF1200E012A03FA0EFC28BF4CF027
:10023000020C43FA05F3C01851EBE37101F00045DD
:1002400007D54FF0000EDCF1000C7EEB00006EEBEA
:100250000101B1F5801F1BD3B1F5001F0CD3490874
:100260005FEA30004FEA3C0C04F101044FEA4452CB
:1002700012F5800F80F09A80BCF1004F08BF5FEA52
:10028000500C50F1000041EB045141EA050130BD32
:100290005FEA4C0C404141EB0101013C28BFB1F544
:1002A000801FE9D291F0000F04BF01460020B1FA8F
:1002B00081F308BF2033A3F10B03B3F120020CDA62
:1002C0000C3208DD02F1140CC2F10C0201FA0CF040
:1002D00021FA02F10CE002F11402D8BFC2F1200CA5
:1002E00001FA02F120FA0CFCDCBF41EA0C0190405B
:1002F000E41AA2BF01EB0451294330BD6FEA0404A4
:100300001F3C1CDA0C340EDC04F11404C4F120028E
:1003100020FA04F001FA02F340EA030021FA04F3A0
:1003200045EA030130BDC4F10C04C4F1200220FAF7
:1003300002F001FA04F340EA0300294630BD21FA35
:1003400004F0294630BD94F0000F83F4801306BFFB
:1003500081F480110134013D4EE77FEA645C18BFEF
:100360007FEA655C29D094EA050F08BF90EA020F86
:1003700005D054EA000C04BF1946104630BD91EA7E
:10038000030F1EBF0021002030BD5FEA545C05D181
:100390004000494128BF41F0004130BD14F58004C0
:1003A0003CBF01F5801130BD01F0004545F0FE4134
:1003B00041F470014FF0000030BD7FEA645C1ABF69
:1003C000194610467FEA655C1CBF0B46024650EAA0
:1003D000013406BF52EA033591EA030F41F40021CC
:1003E00030BD00BF90F0000F04BF0021704730B552
:1003F0004FF4806404F132044FF000054FF0000127
:1004000050E700BF90F0000F04BF0021704730B5E7
:100410004FF4806404F1320410F0004548BF4042BC
:100420004FF000013EE700BF42004FEAE2014FEA11
:1004300031014FEA02701FBF12F07F4393F07F4FEC
:1004400081F06051704732F07F4208BF704793F0EF
:100450007F4F04BF41F40021704730B54FF4607402
:1004600001F0004521F000411CE700BF50EA010205
:1004700008BF704730B54FF000050AE050EA0102AE
:1004800008BF704730B511F0004502D5404261EB1E
:1004900041014FF4806404F132045FEA915C3FF45F
:1004A000D8AE4FF003025FEADC0C18BF03325FEAFC
:1004B000DC0C18BF033202EBDC02C2F1200300FAAD
:1004C00003FC20FA02F001FA03FE40EA0E0021FAD2
:1004D00002F11444BDE600BF70B54FF0FF0C4CF4C0
:1004E000E06C1CEA11541DBF1CEA135594EA0C0F72
:1004F00095EA0C0F00F0DEF82C4481EA030621EAAD
:100500004C5123EA4C5350EA013518BF52EA0335E7
:1005100041F4801143F4801338D0A0FB02CE4FF099
:100520000005E1FB02E506F00042E0FB03E54FF0C9
:100530000006E1FB03569CF0000F18BF4EF0010EC1
:10054000A4F1FF04B6F5007F64F5407404D25FEABD
:100550004E0E6D4146EB060642EAC62141EA555170
:100560004FEAC52040EA5E504FEACE2EB4F1FD0CB2
:1005700088BFBCF5E06F1ED8BEF1004F08BF5FEA30
:10058000500E50F1000041EB045170BD06F00046E2
:1005900046EA010140EA020081EA0301B4EB5C048F
:1005A000C2BFD4EB0C0541EA045170BD41F4801187
:1005B0004FF0000E013C00F3AB8014F1360FDEBFAC
:1005C000002001F0004170BDC4F10004203C35DA88
:1005D0000C341BDC04F11404C4F1200500FA05F30B
:1005E00020FA04F001FA05F240EA020001F00042AC
:1005F00021F0004110EBD37021FA04F642EB060122
:100600005EEA430E08BF20EAD37070BDC4F10C044B
:10061000C4F1200500FA04F320FA05F001FA04F20F
:1006200040EA020001F0004110EBD37041F10001FB
:100630005EEA430E08BF20EAD37070BDC4F1200506
:1006400000FA05F24EEA020E20FA04F301FA05F26E
:1006500043EA020321FA04F001F0004121FA04F216
:1006600020EA020000EBD3705EEA430E08BF20EAE6
:10067000D37070BD94F0000F0FD101F00046400020
:1006800041EB010111F4801F08BF013CF7D041EAA2
:10069000060195F0000F18BF704703F000465200A6
:1006A00043EB030313F4801F08BF013DF7D043EA77
:1006B0000603704794EA0C0F0CEA135518BF95EA2D
:1006C0000C0F0CD050EA410618BF52EA4306D1D1B4
:1006D00081EA030101F000414FF0000070BD50EAD3
:1006E000410606BF1046194652EA430619D094EA5D
:1006F0000C0F02D150EA013613D195EA0C0F05D147
:1007000052EA03361CBF104619460AD181EA03019A
:1007100001F0004141F0FE4141F470014FF0000052
:1007200070BD41F0FE4141F4780170BD70B54FF0ED
:10073000FF0C4CF4E06C1CEA11541DBF1CEA13556D
:1007400094EA0C0F95EA0C0F00F0A7F8A4EB05044F
:1007500081EA030E52EA03354FEA013100F0888046
:100760004FEA03334FF0805545EA131343EA12630F
:100770004FEA022245EA111545EA10654FEA0026C4
:100780000EF000419D4208BF964244F1FD0404F57D
:10079000407402D25B084FEA3202B61A65EB0305D9
:1007A0005B084FEA32024FF480104FF4002CB6EB96
:1007B000020E75EB030E22BFB61A754640EA0C0016
:1007C0005B084FEA3202B6EB020E75EB030E22BF56
:1007D000B61A754640EA5C005B084FEA3202B6EB97
:1007E000020E75EB030E22BFB61A754640EA9C0056
:1007F0005B084FEA3202B6EB020E75EB030E22BF26
:10080000B61A754640EADC0055EA060E18D04FEAE3
:10081000051545EA16754FEA06164FEAC30343EA83
:1008200052734FEAC2025FEA1C1CC0D111F4801F50
:100830000BD141EA00014FF000004FF0004CB6E749
:1008400011F4801F04BF01430020B4F1FD0C88BFE8
:10085000BCF5E06F3FF6AFAEB5EB030C04BFB6EBF3
:10086000020C5FEA500C50F1000041EB045170BDE6
:100870000EF0004E4EEA113114EB5C04C2BFD4EB13
:100880000C0541EA045170BD41F480114FF0000E97
:10089000013C90E645EA060E8DE60CEA135594EA13
:1008A0000C0F08BF95EA0C0F3FF43BAF94EA0C0F16
:1008B0000AD150EA01347FF434AF95EA0C0F7FF48B
:1008C00025AF104619462CE795EA0C0F06D152EADF
:1008D00003353FF4FDAE1046194622E750EA4106C3
:1008E00018BF52EA43067FF4C5AE50EA41047FF4D4
:1008F0000DAF52EA43057FF4EBAE12E74FF0FF3C39
:1009000006E000BF4FF0010C02E000BF4FF0010C09
:100910004DF804CD4FEA410C7FEA6C5C4FEA430C82
:1009200018BF7FEA6C5C1BD001B050EA410C0CBFD1
:1009300052EA430C91EA030F02BF90EA020F002033
:10094000704710F1000F91EA030F58BF994208BF9A
:1009500090422CBFD8176FEAE37040F00100704757
:100960004FEA410C7FEA6C5C02D150EA013C07D1AE
:100970004FEA430C7FEA6C5CD6D152EA033CD3D0F9
:100980005DF8040B704700BF8446104662468C46F3
:100990001946634600E000BF01B5FFF7B7FF002826
:1009A00048BF10F1000F01BD4DF808EDFFF7F4FF4F
:1009B0000CBF012000205DF808FB00BF4DF808EDDA
:1009C000FFF7EAFF34BF012000205DF808FB00BFFD
:1009D0004DF808EDFFF7E0FF94BF012000205DF81F
:1009E00008FB00BF4DF808EDFFF7CEFF94BF0120D4
:1009F00000205DF808FB00BF4DF808EDFFF7C4FFCD
:100A000034BF012000205DF808FB00BF4FEA410C15
:100A10007FEA6C5C02D150EA013C0AD14FEA430CF8
:100A20007FEA6C5C02D152EA033C02D14FF0000035
:100A300070474FF0010070474FEA410212F5001273
:100A400015D211D56FF47873B3EB625212D94FEA15
:100A5000C12343F0004343EA505311F0004F23FAFF
:100A600002F018BF404270474FF00000704750EA54
:100A7000013005D111F0004008BF6FF00040704711
:100A80004FF00000704700BF4A0011D212F500126B
:100A900011D20DD56FF47873B3EB62520ED44FEAD6
:100AA000C12343F0004343EA505323FA02F0704756
:100AB0004FF00000704750EA013002D14FF0FF3094
:100AC00070474FF0000070474FEA4102B2F1E04337
:100AD00024BFB3F5001CDCF1FE5C0DD901F0004C25
:100AE0004FEAC0024CEA5070B2F1004F40EB830075
:100AF00008BF20F00100704711F0804F21D113F1A1
:100B00003872BCBF01F00040704741F480114FEAD9
:100B10005252C2F11802C2F1200C10FA0CF320FA62
:100B200002F018BF40F001004FEAC1234FEAD3237F
:100B300003FA0CFC40EA0C0023FA02F34FEA4303E9
:100B4000CCE77FEA625307D150EA01331EBF4FF072
:100B5000FE4040F44000704701F0004040F0FE408D
:100B600040F40000704700BF80F0004002E000BF8A
:100B700081F0004142001FBF5FEA410392EA030F88
:100B80007FEA226C7FEA236C6AD04FEA1262D2EBD2
:100B90001363C1BFD218414048404140B8BF5B42D7
:100BA000192B88BF704710F0004F40F4000020F070
:100BB0007F4018BF404211F0004F41F4000121F086
:100BC0007F4118BF494292EA030F3FD0A2F10102D0
:100BD00041FA03FC10EB0C00C3F1200301FA03F10E
:100BE00000F0004302D5494260EB4000B0F5000F31
:100BF00013D3B0F1807F06D340084FEA310102F1F0
:100C00000102FE2A51D2B1F1004F40EBC25008BFA1
:100C100020F0010040EA03007047490040EB00006B
:100C2000013A28BFB0F5000FEDD2B0FA80FCACF16C
:100C3000080CB2EB0C0200FA0CF0AABF00EBC25099
:100C400052421843BCBFD0401843704792F0000F87
:100C500081F4000106BF80F400000132013BB5E7DA
:100C60004FEA41037FEA226C18BF7FEA236C21D050
:100C700092EA030F04D092F0000F08BF08467047B5
:100C800090EA010F1CBF0020704712F07F4F04D183
:100C9000400028BF40F00040704712F100723CBF96
:100CA00000F50000704700F0004343F0FE4040F4C0
:100CB000000070477FEA226216BF08467FEA23637E
:100CC0000146420206BF5FEA412390EA010F40F469
:100CD000800070474FF0000304E000BF10F00043B5
:100CE00048BF40425FEA000C08BF704743F096439C
:100CF00001464FF000001CE050EA010208BF7047B7
:100D00004FF000030AE000BF50EA010208BF70473D
:100D100011F0004302D5404261EB41015FEA010C52
:100D200002BF84460146002043F0B64308BFA3F14A
:100D30008053A3F50003BCFA8CF2083AA3EBC2532C
:100D400010DB01FA02FC634400FA02FCC2F120024B
:100D5000BCF1004F20FA02F243EB020008BF20F082
:100D60000100704702F1200201FA02FCC2F12002E8
:100D700050EA4C0021FA02F243EB020008BF20EADD
:100D8000DC7070474FF0FF3C06E000BF4FF0010CF5
:100D900002E000BF4FF0010C4DF804CD4FEA4002D5
:100DA0004FEA41037FEA226C18BF7FEA236C11D01F
:100DB00001B052EA530C18BF90EA010F58BFB2EBD2
:100DC000030088BFC81738BF6FEAE17018BF40F052
:100DD000010070477FEA226C02D15FEA402C05D106
:100DE0007FEA236CE4D15FEA412CE1D05DF8040B8B
:100DF000704700BF844608466146FFE70FB5FFF71E
:100E0000C9FF002848BF10F1000F0FBD4DF808EDD5
:100E1000FFF7F4FF0CBF012000205DF808FB00BFC6
:100E20004DF808EDFFF7EAFF34BF012000205DF820
:100E300008FB00BF4DF808EDFFF7E0FF94BF01206D
:100E400000205DF808FB00BF4DF808EDFFF7D2FF6A
:100E500094BF012000205DF808FB00BF4DF808EDAD
:100E6000FFF7C8FF34BF012000205DF808FB00BF7A
:100E70000E4B07B55A69052142F001025A615B69C0
:100E8000002203F0010301930E20019B01F010FDED
:100E90000E2001F03DFD002205210F2001F008FD8C
:100EA0000F2003B05DF804EB01F032BD00100240EA
:100EB00008B5074B0A21186803F052FB054B642163
:100EC000186803F04DFB012003F02AFBFBE700BF8D
:100ED000600700205C070020364B002118682DE9D0
:100EE000F04103F0ACFB0128334B0ED1334AD2E979
:100EF0000001334AC2E90001324AD2E90001324A14
:100F0000C2E90001314A12781A601B68304F314E35
:100F1000002B3BD0304803F0E7F9FFF773FA284D78
:100F2000294CC5E902012D4803F0DEF9FFF76AFA02
:100F3000C4E90201284803F0F7F9C7E9000127488E
:100F400003F0F2F9264BC6E90001186803F09DFB97
:100F5000284603F04CFA204603F049FAD5E910017F
:100F60000022204BFFF7B8FA02460B461E4803F05A
:100F7000F0F8D4E9100100221A4BFFF7ADFABDE8F2
:100F8000F04102460B46194803F0E3B80022002363
:100F90001548C7E90023C6E9002303F037F91348D1
:100FA00003F034F9064803F083FABDE8F04106483F
:100FB00003F07EBA58070020680700207807002059
:100FC000F00700207007002088070020800700201D
:100FD000F0130020E81300208009002030090020D1
:100FE000540700200000503F0000002010000020A7
:100FF00008B54FF40051034801F0DDFEBDE808409C
:1010000001F02EB800100140034B0360034B0B604E
:1010100080231360704700BF0007002000050020F8
:10102000034B0360034B0B604FF4807313607047F6
:10103000AC040020AC00002070B5002490B0012169
:1010400001A8CDE9014403F0D8FA174B012118603B
:1010500003A8CDE9034403F0D0FA144B22461860EC
:10106000134B012105A8CDE9053403F061FA114BBA
:1010700022461860104B012107A8CDE9073403F080
:1010800057FA0E4E0E4B09AD18600FCE0FC596E8FD
:10109000070085E80700214609A803F019FA094B63
:1010A000186010B070BD00BF580700205407002022
:1010B000D90E000860070020F10F0008987B000897
:1010C0005C0700206407002010222DE9F04188B061
:1010D0000DEB0200002106F00BF9274BDFF89C8096
:1010E0009A69274C42F010029A619A69404602F0D0
:1010F00010020092009A9A694FF4005142F02002C7
:101100009A619A69012702F020020192019A9A6974
:10111000002642F004029A619A69022502F0040254
:101120000292029A9A6942F008029A619B6900222F
:1011300003F008030393039B01F038FE00222046CE
:101140004FF4704101F032FE4FF40053404604A9C1
:10115000CDE90437CDE9066501F050FD4FF4704349
:10116000204604A9CDE90437CDE9066501F046FD26
:1011700008B0BDE8F08100BF00100240001001403F
:10118000000C014010B590B01422002108A806F010
:10119000AFF81422002101A806F0AAF802244FF4A7
:1011A00080330122CDE90D43CDE906234FF4E0134E
:1011B00006A80A920F9301F007FE08B172B6FEE787
:1011C0000F23CDE901344FF480630390CDE904305F
:1011D000214601A801F0BAFF08B172B6FEE710B0CF
:1011E00010BD0000000000002DE9804840A5D5E9B1
:1011F0000045DFF814B18BB0DFF810A101F022FB3D
:10120000FFF7C0FFFFF760FFFFF732FE01F01AFAA9
:1012100001F0BEF901F0DCF801F008F901F02EFA56
:101220006421584603F0B6F86421504603F0B2F842
:1012300031A3D3E900230026002700214FF0000846
:10124000CDE90223DFF8C890324ACDE90667CDE93F
:101250000445CDE90012304B00223048CDE9088921
:1012600003F0A4F824A3D3E900230021CDE9066705
:10127000CDE9044500260024CDE90223254A264B6A
:10128000CDE9001226480022CDE9088903F08EF846
:10129000244F2548254D02F0D7FF254802F0D4FF02
:1012A00017A3D3E900232348CDE90267CDE9004520
:1012B000CDF810B002F0FBFF11A3D3E900231E48C4
:1012C000CDE90267CDE90045CDF810A002F0EFFFAF
:1012D0003C211A4802F0B4F83C21194802F0B0F859
:1012E000FFF7AAFE03F0EFF8FEE700BFAFF30080C0
:1012F0007B14AE47E17A843F2D431CEBE2361A3F64
:10130000B81E85EB51B8AE3FC40800205808002035
:1013100000009040000008400000F03FF00700206F
:101320008807002000002640100000200080464072
:1013300000000020800900203009002090140020C7
:10134000481400200268034B9A4201D101F08CBA84
:10135000704700BF002C014072B6FEE743680B7077
:1013600043681B0A4B70C3888B70C379CB7083684A
:101370000B7183681B0A4B7143898B71C37A0820F8
:10138000CB7170470B7843604A7843EA022343608D
:101390008A7843EA02434360CA7843EA02634360BF
:1013A0000B7983604A7943EA022383608A7943EAAE
:1013B00002438360CA7943EA02638360082070476E
:1013C00000487047CF7B000800487047DD7B00086D
:1013D00000487047FE7B000800487047177C0008F3
:1013E00000487047387C0008004870474B7C000874
:1013F00000487047C47E0008004870476C7C0008B5
:10140000004870478D7C0008004870479D7C0008AC
:1014100000487047BE7C000800487047DB7C00082D
:10142000F8B504460D460027042643680B70436850
:101430001B0A4B70C3888B70C379CB706368A91982
:10144000BB420AD8E369301DAB55E3691B0A4B70F8
:10145000E38B8B70E37FCB70F8BDA0693B01C35871
:1014600000EB07101B68984701370644E6E70000C9
:1014700000487047FC7C000800487047167D000853
:1014800038B5044604300D46FFF7CAFF0021626AF2
:101490002B182A54626A120A5A70E28C9A7094F8D5
:1014A0002720DA70626A8A4203D8C5F10400184422
:1014B00038BDE26A043352F821200131100A1A7053
:1014C0005870100C120E9870DA70EBE700487047F5
:1014D000377D000800487047527D0008006C704757
:1014E00000487047377D000800487047527D00086B
:1014F00090F80009704700002DE9F843C66AD6F855
:1015000000904846FEF790FFD6F804800446404617
:101510000D46FEF789FF06460F4648460021FFF7B5
:1015200075FC20B100214046FFF770FC90BB002203
:10153000204629461C4BFFF7F9F819A3D3E90023ED
:10154000FEF7CAFFFFF7C0FA04F09EFFFEF76CFF3C
:101550000022154B04460D4630463946FFF7E6F8A3
:101560000FA3D3E90023FEF7B7FFFFF7ADFA04F0AE
:101570008BFFFEF759FF01230C4A13700C4BC3E994
:1015800000450C4BC3E900010B4B1868BDE8F8435C
:1015900003F07BB800240025002320462946EBE712
:1015A0000000000000F07E4000004E408007002058
:1015B00078070020700700205807002070B5054606
:1015C000006890F84130202B20D1114E3378EBB9D0
:1015D0000123D5F80C143370D5F808348B4213D09E
:1015E0008CB28BBF1B1BC4F500749CB2A4B201F576
:1015F00002712246294402F0B1FAD5F80C341C4499
:10160000C4F30804C5F80C440023337070BD00BF58
:10161000F81300202DE9F043632904460E461046D6
:1016200085B003DD94F80059002D55D0036804F20D
:101630002B611B6898474FF6FF63A4F82436C0F36C
:1016400007230344DB4384F82836002384F8296603
:1016500046F3072684F82A662B4EA4F8260604F5DE
:10166000C562851D361BB1188D4239DADB4300F1A6
:101670000805204480F82B3640F201239D4233D0E8
:10168000AFB2B7F5007F28BF4FF40077D4F80C0451
:1016900004F22469C0F50076BE4228BF3E4600F53C
:1016A000037032464946204405F056FED4F80C3407
:1016B00004F104083B44C3F30803C4F80C34B3B288
:1016C0009F4206D0BA1B09EB060104F5037005F032
:1016D00043FE4046FFF772FF284605B0BDE8F083A1
:1016E00012F8011F0B44BEE7084B072101930323A7
:1016F0008DF80830064B20460393236801AA1B6827
:1017000098474FF0FF35E7E7DDF9FFFF107E00084F
:10171000737D000808B50248FFF750FF08BD00BF01
:10172000AC0A002003494FF4007251F8040C02F097
:10173000FFBC00BFB00A00200B0A017043700B0C05
:10174000090E8370C170704770B5054640680C463D
:10175000FEF7FEFC064601462046FFF7EDFF6968EE
:101760003246201D05F0F8FDAB68A1190B71AB687E
:1017700006F10C001B0A4B716B898B71EB7ACB71F4
:10178000EB680B72EB681B0A4B72EB898B72EB7B7D
:10179000CB7270BD70B5064640680D46FEF7D8FCAA
:1017A000044601462846FFF7C7FF22467168281DF8
:1017B00005F0D2FD201D70BD43682DE9F0410B708E
:1017C00043680D461B0A4B70C3884A1D8B70C37952
:1017D0000446CB70002166688B008E4202F1040043
:1017E00023D82169083302F8011C21692B44090A16
:1017F0001170618A5170E17C9170002120691A1D7D
:10180000884223D80027E269C5F104061A70E2690C
:101810001E44120A5A70E28B9A70E27FDA70E36912
:10182000BB4224D83046BDE8F081E36853F821304C
:1018300001311A0A00F8053C00F8042C1A0C1B0EA2
:1018400000F8032C00F8023C0246C4E7A36953F8F1
:1018500021300131180A02F8043C02F8030C180C7C
:101860001B0E02F8013C02F8020C1346C6E7636A3D
:1018700053F82700FEF76CFC80460146A819FFF7D5
:101880005BFF636A043653F82710A819424605F037
:1018900063FD46440137C2E7F8B50F4603790546B4
:1018A00007F8013B80680E46FEF752FC04460146ED
:1018B0003846FFF741FF2246A968701D05F04CFD30
:1018C000601DF8BDF8B5838806460B7083880D4609
:1018D0001B0A4B708068FEF73BFC04460146A81CBF
:1018E000FFF72AFF2246B168A81D05F035FDF06814
:1018F000FEF72EFC0746A01D394628440A34FFF7A0
:101900001BFF3A46F168281905F026FD3069FEF7FD
:101910001FFC3C440746014628190434FFF70CFF1E
:10192000316928193A4605F017FD7369E0192B54FF
:10193000190A05446970190C1B0EA970EB7004306C
:10194000F8BD002310B50360013911F8014F02689A
:101950009C4008332243202B0260F6D110BDF7B51E
:101960000C4611F8013B0546037101A8FFF7E9FF9A
:10197000019E231D771D34BF32460022611D18468B
:1019800005F09CFC002234442271A860384603B064
:10199000F0BDF7B50E46044601A8FFF7D2FF019D42
:1019A000F31C2F1D34BF2A460022311D184605F0B6
:1019B00085FC00217219D1706060F35D05F10C00A7
:1019C000A360517943EA0123A360917943EA01437B
:1019D000A360D17943EA0163A360137AE360517A8B
:1019E00043EA0123E360917A43EA0143E360D27A58
:1019F00043EA0263E36003B0F0BD2DE9F8434368B6
:101A00000D680446AB420E4604D28069290105F0F8
:101A1000FFFBA06165600027042504F1080804F1BC
:101A2000180963687119BB4210D8735D281DE36102
:101A30004A7843EA0223E3618A7843EA0243E36196
:101A4000CA7843EA0263E361BDE8F8834046FFF7E2
:101A5000A0FF4246A369054403EB071352F8041B99
:101A60004A4543F8041BF9D10137DAE7F8B50546D2
:101A700004300E46FFF7C1FF3718BC787A78335C24
:101A8000240444EA02241C43FB7844EA03646B6A9E
:101A9000A34204D2E86AA10005F0BAFBE862002183
:101AA0006C626A6A8A4203D8C6F104003844F8BD01
:101AB000BA797879120442EA00223879043702436D
:101AC000F87842EA0062E86AAA6240F8212001310F
:101AD000E7E770B5044600F10C052846FFF7C6FF9E
:101AE0002846E36BBDE8704018472DE9FF410C46DE
:101AF0000B78074683804A78023143EA02238380C9
:101B000001A8FFF71EFF019E631D16F1060834BFF2
:101B1000324600221846A11D05F0D0FB0025A2196F
:101B2000557104EB0801B86002A8FFF70AFF2B46C5
:101B3000029D06F10A014D1928BF01234FF000084C
:101B4000AA1B0936002B2644A2F10A02214418BF21
:101B50000022304605F0B2FB611901F8018C03A8A0
:101B6000FE60FFF7EEFE039E291D761828BF4FF09A
:101B70000108721B0335B8F1000F2544A2F10402DD
:101B8000214418BF0022284605F098FB0023A21923
:101B900002F8013C3D61937851781B0443EA01232C
:101BA000A15DD2780B4343EA0263301D7B6104B030
:101BB000BDE8F0812DE9F34743680D680446AB4268
:101BC0000E4604D2C068A90005F022FBE06033464F
:101BD000002265609D7959792D0445EA012519791E
:101BE00097000D43D979043345EA01656168914254
:101BF00031D82369AB4204D2A069A90005F008FBE3
:101C0000A0610023083725613744BD787A782D0418
:101C100045EA02253A78391D1543FA7845EA026506
:101C200022699A421DD8E369AB4204D2606AA900D6
:101C300005F0EEFA60624FF000086FF00309C2464B
:101C4000C6F104031F44E561E369434510D83846F3
:101C500002B0BDE8F087E168A56041F8225001328A
:101C6000B8E7A26965610F4642F823500133CCE71B
:101C7000F11901A8FFF765FE019D391DFB1C6D18C8
:101C8000A9EB070233442A44184628BF00223144F6
:101C900005F014FB721902F801AC626A20622F464B
:101CA00042F8280008F10108CEE7F7B50C460646D1
:101CB00001A8FFF746FE019DE31C2F1D34BF2A46F5
:101CC0000022211D184605F0F9FA00222C44E2708A
:101CD0007060384603B0F0BD1FB5084B0A21019370
:101CE0000023CDE90233036801AA1B680446984724
:101CF00000F0C6FDC4F8140404B010BDE07D000877
:101D00002DE9F0412A4B86B000932A4B0546CDE9D8
:101D10000233049300234FF40077059300F5026427
:101D200000F6840654F8043FBBB19A685868ADF8D1
:101D300004201A68036802929B68984723680390FE
:101D400058680368DB68984721682B68CDE9040769
:101D50006A4628461B6809699847B442E2D14FF4A5
:101D6000007705F6E80654F8040FC8B14368ADF8EB
:101D700004308368029303689B6898470390206847
:101D80000368DB6898472B68CDE904072068D3F81F
:101D9000008003685B6898476A4601462846C0474A
:101DA000B442E0D1012385F8003906B0BDE8F081E6
:101DB000F87D0008557F0008F0B51D4B85B00193F4
:101DC000002304460D46CDE9023300F059FDD4F856
:101DD00014342946C71A01A8FFF7D4FA029B154DFF
:101DE0005E1E039B1D4400F04BFD4FF47A72B7FB5F
:101DF000F2FCB0FBF2F102FB1C770CEB06035B1A62
:101E0000C4F818340C4B02FB110003FB075503FB0D
:101E1000105504F21C4104F58360C4F81C5400F012
:101E200003FC00F02DFDC4F8080905B0F0BD00BFAB
:101E3000E07D000800CA9A3B40420F002DE9F041C6
:101E4000044600F01DFD42F6F822D4F80839054694
:101E5000C31A934284BF002384F80039D4F8EC38C5
:101E600033B1D4F80C3983423CBF0023C4F8EC38BA
:101E700000264FF00708794FD4F820348BB96368F7
:101E8000D4F80822DB6B1B685B685B42C3F3080372
:101E90009A4210D194F80039002B40F0D0800020F5
:101EA000A5E000F0EDFCD4F82034401B9842E6D9C0
:101EB0006FF001009BE0A3180132C2F308021B7A05
:101EC000D4F8EC18C4F80822D4F8FC2807291A44DE
:101ED000C4F8FC2812D1D4F8F828511C2244C4F8C4
:101EE000F81882F82434D4F8F038013BC4F8F038FC
:101EF000002BC1D10823C4F8EC38BDE70829BBD8B2
:101F000001A050F821F000BF2D1F0008571F000846
:101F1000731F0008871F0008971F0008A71F0008ED
:101F2000AF1F0008791E0008C51F0008FF2B07D14E
:101F30000123C4F8EC3805F11403C4F80C399BE70D
:101F400000F09EFC41F28833401B984294D9002354
:101F500084F80039ACE7FE2B01D10223CBE794F8DB
:101F60000039C4F8EC68002B86D12046FFF7B4FE98
:101F700082E70322C4F8F038C4F8F868C4F8EC2803
:101F8000C4F8FC3878E7D4F8F02802EB0322C4F850
:101F9000F0280423AFE73A40FF2A01D10523AAE73E
:101FA000C4F8EC6868E70622C4F8F438E6E7D4F829
:101FB000F428C4F8EC8802EB0322C4F8F428D4F81F
:101FC000F03895E73A40FF2AC4F8EC687FF454AF44
:101FD000D4F8F4386BB92046FFF77EFE2046FFF7B1
:101FE0008FFE4FF0FF30C4F80459C4F80859BDE81B
:101FF000F0810A2B05D1204604F22441FFF7DCFED4
:102000003AE7062B09D104F2244104F61410FFF735
:10201000D1FD012384F810392EE70B2B02D184F86F
:10202000006929E703F5DF7354F8230000283FF423
:1020300023AF036804F224411B6898471CE740F66D
:10204000C412D4F80439EB1A93427FF628AF204625
:10205000FFF742FEC4F8045921E700BFFF000080EB
:1020600070B5274B0021186886B002F0E8FA012805
:10207000244D254E09D1D5E900232449C1E9002387
:10208000D6E900232249C1E9002322490022D1E9EF
:102090000001214BFEF720FA17A3D3E90023FEF736
:1020A00045FBCDE904011D490022D1E900011A4B8D
:1020B000FEF712FA10A3D3E90023FEF737FBCDE9B0
:1020C0000201D6E90023CDE90023154CD5E9002310
:1020D0002046144905F0D2F8134B144AD8685460CE
:1020E00001680C689968A0471148FFF7A7FE06B081
:1020F00070BD00BFAFF300800000000000F07E4024
:1021000054070020F0130020E8130020400A0020AC
:10211000380A00207007002000004E407807002099
:10212000D0090020AC7D00088C0A0020A00A002005
:10213000A80A002070B500244FF400763C4D3D4BBA
:1021400032462B603C4B214605F224406B60C5F8BB
:102150000842C5F80C44C5F81044C5F81444C5F845
:102160001844C5F81C44C5F8204405F0C1F83246AF
:102170006426214605F2246005F0BAF8324621466D
:1021800005F6240005F0B4F83246214605F688002D
:1021900005F0AEF80021294B294AC5F81439294B1E
:1021A00029481360C5F8EC48284BC5F8F048C5F835
:1021B000F448C5F8F848C5F8FC4885F80049C5F862
:1021C0000449C5F80849C5F80C4985F81049C5F80F
:1021D0001849C5F81C49C5F82049C5F82449C5F86F
:1021E0002819C5F82C49C5F83049C5F83449C5F84F
:1021F0003849174D1C61C3E900525060154B164A0F
:102200001A60164ADA60164AC3E90424154AC3E97B
:102210000620154AC3E90844DA6301221A64134A06
:10222000C3E90A441C6359639C639A6070BD00BF94
:10223000A80A0020A07E0008F0150020287E0008D3
:10224000A00A0020407E0008557F00088C0A00206C
:10225000BC7D0008480A0020B47E0008887E000883
:10226000707E0008587E0008F9140008C87D000838
:10227000114B07B59A690F2142F001029A619A69E0
:102280006FF0010002F001020092009ADA6942F058
:102290008052DA61DB69002203F080530193019BD5
:1022A00000F006FB054A536823F0E06343F0007337
:1022B000536003B05DF804FB0010024000000140D1
:1022C0001E4B70B59A6988B042F400629A619B69AE
:1022D00001A903F400630293064603A8184D029B6C
:1022E00000F0F0FF00F0DEFF164B2B6040F2E7330A
:1022F000EB60154BB0FBF3F0002301386860284613
:102300002B61AB60AB6101F0D3F9044680B928467C
:1023100001F06CF8044658B9192000F0F9FA0F2EB4
:1023200009D822463146192000F0C2FA074B1E6038
:10233000204608B070BD0124FAE700BF001002403B
:10234000FC130020002C014040420F002800002018
:10235000FEE7FEE7FEE7FEE7FEE77047014800F014
:10236000B9BB00BF20150020014800F0B3BB00BF7F
:1023700064150020014801F0C0B800BFFC13002024
:10238000014801F03FBD00BFF01500200B4A034695
:10239000116810B509B90A491160106809490A4C59
:1023A0000344091B8B4206D904F0AAFF0C230360E7
:1023B0004FF0FF3010BD1360FCE700BF4414002055
:1023C0000826002000500020000400007047000094
:1023D00010B500248CB00021202204A804F088FF4E
:1023E0001048114B03A9C0E900344FF6FF73C0E950
:1023F00003340123CDE90144846084610393059390
:10240000099301F0ADF908B1FEF7A6FF054801A94F
:10241000CDE9014401F0DAFA08B1FEF79DFF0CB0F6
:1024200010BD00BF901400200004004010B500242F
:102430008CB00021202204A804F05AFF1048114B50
:1024400003A9C0E900344FF6FF73C0E90334012348
:10245000CDE901448460846103930593099301F0FD
:102460007FF908B1FEF778FF054801A9CDE90144DD
:1024700001F0ACFA08B1FEF76FFF0CB010BD00BF61
:102480004814002000080040036882B0B3F1804F78
:102490000AD103F50433DA6942F00102DA61DB693B
:1024A00003F001030193019B02B07047102210B5A5
:1024B000044688B00DEB0200002104F019FF2368E8
:1024C0001C4A93421AD11C4B1C48DA6904A942F0F9
:1024D0000202DA61DA6902F002020092009A9A6955
:1024E00042F004029A619B6903F004030193019B8B
:1024F000C023049300F082FB08B010BD104A934241
:10250000FAD10D4B0F48DA6904A942F00402DA61EE
:10251000DA6902F004020292029A9A6942F0080211
:102520009A619B6903F008030393039BC023049300
:10253000E0E700BF00040040001002400008014036
:1025400000080040000C014010B5044686B010227F
:10255000002102A804F0CCFE2368B3F1804F13D110
:1025600003F504339A69094842F004029A619B69B1
:10257000032203F004030193019B022302A9CDE986
:102580000223059300F03AFB06B010BD000801409D
:1025900010B5234A8EB004AB07CA83E8070018467B
:1025A000694601AA01F060FE00241C2221460DEBC1
:1025B0000200CDE9024404F09BFE4FF0804319482D
:1025C000C0E900344FF6FF738460C0E903348461CE
:1025D00001F09AF808B1FEF7BFFE124802A9CDE952
:1025E000024401F0F3F908B1FEF7B6FE00226023C1
:1025F0000C4807A9CDE9073209920B9201F030F996
:1026000008B1FEF7A9FE0422064807A901F028F93F
:1026100008B1FEF7A1FE0348FFF796FF0EB010BD0C
:10262000B47B0008D81400200B6830B5044D026854
:10263000B3FBF5F405FB1433224402600B6030BD9C
:1026400000CA9A3B08B54FF461430A480A4AC0E9F8
:10265000002300230C22C0E90233C0E905230361F3
:10266000C36101F04BFA18B1BDE80840FEF774BE33
:1026700008BD00BFF01500200038014008B54FF438
:10268000E1330A480A4AC0E9002300230C22C0E9CA
:102690000233C0E905230361C36101F02FFA18B1C9
:1026A000BDE80840FEF758BE08BD00BFA8150020D1
:1026B00000440040102270B5064688B00DEB0200C1
:1026C000002104F015FE3368434A934259D1434B2D
:1026D0004FF400749A69424842F480429A619A69C0
:1026E00004A902F480420092009A9A69002542F0FF
:1026F00004029A619B6903F004030193019B022386
:10270000CDE904430323079300F078FA4FF4806384
:10271000334804A9334CCDE90435069500F06EFA30
:10272000314B2046C4E900358023C4E90555C4E98E
:102730000335A560E56100F0F9F808B1FEF70CFE7D
:1027400010232A48F4636662294C8022C4E90003FE
:1027500000232046C4E90232C4E90433C4E9063345
:1027600000F0E4F808B1FEF7F7FD2520002205216E
:10277000B463666200F09CF8252000F0C9F808B048
:1027800070BD1C4A9342FAD1144B04A9DA6914486B
:1027900042F40032DA61DA6902F400320292029AFB
:1027A0009A6942F004029A619B69042203F00403CF
:1027B0000393039B0223CDE904230323079300F033
:1027C0001DFA002308210648CDE9041304A9069345
:1027D00000F014FAD3E700BF0038014000100240B7
:1027E00000080140641500205800024044000240E7
:1027F0002015002000440040FFF7E8FD0B480C497D
:102800000C4A002302E0D458C4500433C4188C424C
:10281000F9D3094A094C002301E013600432A242B3
:10282000FBD304F073FDFEF7DFFC704700000020CF
:1028300090000020987F00089000002008260020CB
:10284000FEE70000074A08B51368032043F01003B1
:10285000136000F01BF80F20FFF732FDFFF708FDB3
:10286000002008BD00200240034A044B11681B7879
:102870000B441360704700BF38160020240000206E
:10288000014B1868704700BF381600200749030243
:10289000CA6803F4E06322F4E0621204120C1343EA
:1028A00043F0BF6343F40033CB60704700ED00E0BA
:1028B000154B30B5DC68C4F30224C4F10703251DB1
:1028C000042B28BF0423062D4FF0FF3594BF0024AE
:1028D000033C05FA03F321EA0303A54022EA0502BB
:1028E000A340002843EA0203ACBF00F16040074A5E
:1028F0004FEA0313DBB2ABBF00F5614000F00F00FD
:1029000080F80033135430BD00ED00E014ED00E01A
:10291000002807DB01234109034A00F01F00834020
:1029200042F82130704700BF00E100E0034610B5D7
:1029300040B314210068144A0244B2FBF1F2920041
:102940001A64124ADA63022283F82120D3E90124AF
:102950002243DC68016822431C6921F47F51224331
:102960005C6921F0300122439C692243DC692243E7
:102970000A43026000200122986383F8200083F854
:10298000212010BD0120FCE7F8FFFDBF0000024040
:10299000F0B590F82040012C34D0012480F820407C
:1029A00090F82140012CE5B24FF0000428D1022616
:1029B00080F8216084630468266826F0010626609A
:1029C000D0E90F67BD40756063604368102BC36A30
:1029D0000BBFA260A160E160E2604BB1236843F0ED
:1029E0000E0300202360236843F001032360F0BD41
:1029F000236823F004032360236843F00A03F0E70D
:102A000080F820400220F2E790F821200346022AB5
:102A100006D0042282630120002283F82020704720
:102A20000268C06B116821F00E011160116821F07D
:102A30000101116001211A6C01FA02F242600020CA
:102A400083F82110E8E7000008B590F82130022B48
:102A500003D004238363012008BD03681A6822F0B1
:102A60000E021A601A6822F001021A60174A934295
:102A70001FD0143293421ED0143293421DD0143210
:102A800093421DD0143293421DD01432934214BF8E
:102A90004FF080734FF480130D4A5360012380F888
:102AA0002130002380F82030436B03B19847002089
:102AB000D2E70123F0E71023EEE74FF48073EBE752
:102AC0004FF48053E8E74FF48033E5E70800024015
:102AD0000000024070B40425C66B026C34680368C1
:102AE00095402542196832D04D0730D51A689606B0
:102AF0005EBF1A6822F004021A603E4A934219D05F
:102B00001432934218D01432934217D014329342A5
:102B100017D01432934217D01432934214BF4FF09F
:102B200080634FF48003344A5360C36A002B5ED045
:102B300070BC18470423F6E74023F4E74FF48063A2
:102B4000F1E74FF48043EEE74FF48023EBE70225F3
:102B50009540254235D08D0733D51A68940606D4A2
:102B60001A6822F00A021A60012280F82120214A04
:102B7000934219D01432934218D01432934217D092
:102B80001432934217D01432934217D01432934226
:102B900014BF4FF000734FF40013174A5360002323
:102BA00080F82030836AC1E70223F6E72023F4E7A8
:102BB0004FF40073F1E74FF40053EEE74FF40033A6
:102BC000EBE708259540254211D009070FD5196874
:102BD00021F00E011960012303FA02F2726083638F
:102BE00080F82130002380F82030036B9EE770BC12
:102BF000704700BF08000240000002402DE9F74F77
:102C000000242646DFF888C1624BDFF88CE1DFF84C
:102C10008C810A6832FA06F502D103B0BDE8F08F64
:102C20000127B74002EA070537EA02027AD14A686B
:102C3000032A07D8013A022A00F28380DFE802F073
:102C400092979D00122A00F095806DD8112A00F00D
:102C50008B80FF2D98BF81464FF00F0B88BF00F18E
:102C600004094FEA8602D9F8007088BF203A0BFAAF
:102C700002FA27EA0A0704FA02F21743C9F80070B9
:102C8000D1F8049019F0805F4CD0DCF8182026F0C1
:102C9000030742F00102CCF81820DCF8182007F1F5
:102CA000804702F00102019207F5803706F0030A1F
:102CB000019A4FEA8A0ABA680BFA0AFB22EA0B0B5E
:102CC000374A90425DD002F5806290425BD002F5B7
:102CD0008062904259D002F58062904214BF042273
:102CE000032202FA0AF242EA0B02BA609A6819F465
:102CF000801F14BF2A43AA439A60DA6819F4001FA0
:102D000014BF2A43AA43DA605A6819F4003F14BF7B
:102D10002A43AA435A601A6819F4803F14BF2A4311
:102D2000AA431A60013674E7DFF878904A4508D064
:102D300010D8A9F580194A4503D0724501D0424503
:102D400087D18A68DAB1012A4FF008040CBF076105
:102D500047617EE7DFF850904A45F2D009F58039A7
:102D60004A45EDE7CC6874E7CC68043471E7CC6879
:102D700008346EE7CC680C346BE7002469E7042460
:102D800067E70022ADE70122ABE70222A9E700BF17
:102D9000001002400004014000002110000011104A
:102DA0000008014000002210000031100AB101614A
:102DB00070470904FBE7C36801EA030221EA030143
:102DC00041EA0241016170472DE9F341054638B3FC
:102DD0000368DB0710D42B689F075ED42B681907A4
:102DE00000F195802B685A0700F1C180EB69002B38
:102DF00040F02C81002029E0904C636803F00C0324
:102E0000042B07D0636803F00C03082B0AD1636816
:102E1000DE0307D523689C03DDD56B68002BDAD170
:102E2000012013E06B68B3F5803F12D1236843F4AF
:102E300080332360FFF724FD064623689803CAD435
:102E4000FFF71EFD801B6428F7D9032002B0BDE800
:102E5000F0819BB9236823F480332360236823F433
:102E600080232360FFF70CFD064623689903B2D543
:102E7000FFF706FD801B6428F7D9E6E7B3F5A02F1E
:102E8000236803D143F480232360CFE723F4803306
:102E90002360236823F48023CBE7684C636813F036
:102EA0000C0F07D0636803F00C03082B10D1636884
:102EB000DA030DD423689B0702D52B69012BAFD110
:102EC00023686A6923F0F80343EAC203236085E7B5
:102ED0002A695B4B6AB101221A60FFF7D1FC0646F2
:102EE00023689F07ECD4FFF7CBFC801B0228F7D99F
:102EF000ABE71A60FFF7C4FC0646236898077FF526
:102F00006DAFFFF7BDFC801B0228F6D99DE7AA69CB
:102F10004A4E4B4BE2B10122C3F88024FFF7B0FCCC
:102F20000446736A9B070DD54FF4FA52454B1B6854
:102F3000B3FBF2F3019300BF019B5A1E0192002BD9
:102F4000F9D14FE7FFF79CFC001B0228E9D97CE789
:102F5000C3F88024FFF794FC0446736A9F077FF54B
:102F600041AFFFF78DFC001B0228F6D96DE7334C0B
:102F7000E369D80024D40127E36943F08053E36177
:102F8000E36903F080530093009B2F4E3368D9050B
:102F900018D5EB68012B26D1236A43F00103236285
:102FA000FFF76EFC41F288380646236A9B073FD53F
:102FB000002F3FF41BAFE36923F08053E36115E773
:102FC0000027E2E7336843F480733360FFF758FC6F
:102FD00080463368DA05DCD4FFF752FCA0EB08002A
:102FE0006428F6D931E7ABB9236A41F2883823F077
:102FF00001032362236A23F004032362FFF740FCEA
:103000000646236A9807D3D5FFF73AFC801B404554
:10301000F7D91AE7052B236A03D143F0040323628F
:10302000BAE723F001032362236A23F00403B6E71F
:10303000FFF726FC801B4045B7D906E70010024089
:103040000000424220000020007000402A4C6268CC
:1030500002F00C02082A3ED00022022B274B1A66EF
:103060002CD1FFF70DFC06462368990120D42B6A6A
:10307000B3F5803F05D16268A96822F400320A43A3
:103080006260696A62680B4322F47412134301227E
:1030900063601A4B1A66FFF7F3FB054623689A0133
:1030A0003FF5A8AEFFF7ECFB401B0228F6D9CCE6B3
:1030B000FFF7E6FB801B0228D6D9C6E6FFF7E0FB48
:1030C000054623689B017FF595AEFFF7D9FB401BB2
:1030D0000228F6D9B9E6012B3FF4A2AE60682B6A4C
:1030E00000F480329A427FF49BAE6B6A00F4701059
:1030F000C01A18BF0120A9E6001002400000424299
:103100000D4A536803F00C01082912D10B48C3F390
:103110008341DB03405C09D55368094AC3F340434C
:103120005043084AD35CB0FBF3F07047064B58435A
:1031300070470348704700BF00100240FA7E000845
:1031400000127A00F87E000800093D002DE9F041E8
:103150000D46044610B90120BDE8F081444A1368C9
:1031600003F007038B4228D321688E0730D4CA07A7
:1031700043D43F4A136803F00703AB4265D8226883
:103180003C4D12F0040F6CD1130706D56B68226911
:1031900023F4605343EAC2036B60FFF7B1FF6B682F
:1031A000354AC3F30313D35CD840344B1860344B17
:1031B0001868FFF785F80020CEE7136823F00703AF
:1031C0000B431360136803F007038B42C3D1CBE7B3
:1031D000284B11F0040F1EBF5A6842F4E0625A6097
:1031E000080742BF5A6842F460525A605A68A068A1
:1031F00022F0F00202435A60B9E762681D4E012ACC
:1032000033681AD113F4003FA5D0736841F28838AF
:1032100023F0030313437360FFF732FB0746736821
:10322000626803F00C03B3EB820FA2D0FFF728FB18
:10323000C01B4045F3D903208EE7022A02D113F0C8
:10324000007FE1E713F0020FDEE7136823F00703C6
:103250002B431360136803F00703AB427FF47BAF8B
:103260008DE76B68E16823F4E0630B436B608BE7E9
:103270000020024000100240E87E000820000020EC
:1032800028000020044B054A5B68C3F30223D35C8B
:10329000034A1068D840704700100240E07E0008E2
:1032A00020000020044B054A5B68C3F3C223D35CB3
:1032B000034A1068D840704700100240E07E0008C2
:1032C000200000200F2303600B4B5A6802F003021A
:1032D00042605A6802F0F00282605A6802F4E062CA
:1032E000C2605B68DB0803F4E0630361034B1B68A7
:1032F00003F007030B6070470010024000200240FB
:10330000036A026A70B522F00102026244688269AF
:103310000D6822F073022A438D6823F002032B43C9
:103320000A4DA8420BD1CD6823F008032B4324F4A7
:103330004074D1E90556354323F004032C4344601F
:1033400082614A684263036270BD00BF002C014085
:10335000036A026A70B522F4807202624468C2692C
:103360000D6822F073022A438D6823F4007343EA48
:1033700005230B4DA8420DD1CD6823F4006343EA29
:10338000052324F44054D1E90556354323F48063E2
:1033900044EA05144460C2614A68C263036270BDB6
:1033A000002C0140036A026A30B522F480520262A6
:1033B0004468C2690D6822F4E64242EA05228D683B
:1033C00023F4005343EA0533064DA84202BF4D697A
:1033D00024F4804444EA85144460C2614A6802646B
:1033E000036230BD002C01407047000090F83D3072
:1033F000012B20D1022380F83D300368DA6842F0C7
:103400000102DA600D4A93420AD0B3F1804F07D02F
:10341000A2F59432934203D002F58062934204D124
:103420009A6802F00702062A03D01A6842F00102E5
:103430001A60002070470120704700BF002C014037
:10344000034630B590F83E0093F83F2093F8425081
:1034500093F84340C0B2D2B2EDB2E4B2C1B9012890
:1034600045D1012D13D1022283F83E2083F842205A
:103470001A68116A21F001011162116A41F001011B
:10348000002011621A68136843F00103136030BD15
:10349000042911D1012A2AD1012C28D1022283F832
:1034A0003F2083F843201A68116A21F0100111624D
:1034B000116A41F01001E3E7012818D1012AE6D191
:1034C000012DE4D1012CE2D1022283F83E2083F8C1
:1034D0003F2083F8422083F843201A68116A21F0C4
:1034E00001011162116A41F001011162DCE7012062
:1034F000CDE77047704770477047036810B51A6989
:10350000044691070ED5DA6892070BD56FF00202D8
:103510001A61012202779B699B0777D0FFF7EAFFC8
:103520000023237723681A69500710D5DA685107FA
:103530000DD56FF004021A61022222779B692046A2
:1035400013F4407F68D0FFF7D5FF0023237723686B
:103550001A6912070FD5DA6810070CD56FF0080248
:103560001A6104222277DB69204699075AD0FFF7B7
:10357000C1FF0023237723681A69D20610D5DA68C1
:10358000D0060DD56FF010021A6108222277DB6990
:10359000204613F4407F4BD0FFF7ACFF0023237786
:1035A00023681A69D10708D5DA68D20705D56FF004
:1035B000010220461A61FDF7C5FE23681A6910064C
:1035C00008D5DA68110605D56FF0800220461A6129
:1035D00000F02BFA23681A69520608D5DA685006FB
:1035E00005D56FF0400220461A61FFF785FF23687A
:1035F0001A69910622D5DA6892061FD56FF020026B
:103600002046BDE810401A6100F00EBAFFF771FFC6
:103610002046FFF770FF83E7FFF76BFF2046FFF7B9
:103620006AFF92E7FFF765FF2046FFF764FFA0E718
:10363000FFF75FFF2046FFF75EFFAFE710BD00001A
:103640001A4A036890420AD0B0F1804F07D0A2F521
:103650009432904203D002F58062904215D14A68BC
:1036600023F070031343114A90420AD0B0F1804F07
:1036700007D0A2F59432904203D002F580629042C6
:1036800003D1CA6823F4407313434A6923F08003CB
:10369000134303608B68C3620B688362034B9842D9
:1036A00004BF0B690363012343617047002C014091
:1036B00010B5044630B390F83D3003F0FF021BB95B
:1036C00080F83C20FFF790FE0223206884F83D300C
:1036D000211DFFF7B5FF0123002084F8463084F850
:1036E0003E3084F83F3084F8403084F8413084F82C
:1036F000423084F8433084F8443084F8453084F80C
:103700003D3010BD0120FCE710B5044630B390F801
:103710003D3003F0FF021BB980F83C20FEF7B4FEF9
:103720000223206884F83D30211DFFF789FF012323
:10373000002084F8463084F83E3084F83F3084F826
:10374000403084F8413084F8423084F8433084F8C3
:10375000443084F8453084F83D3010BD0120FCE74A
:10376000F8B50D46044600284CD090F83D3003F0E3
:10377000FF021BB980F83C20FEF798FE0223214689
:1037800084F83D3051F8040B836823F4804323F020
:1037900007038360FFF754FF81682A688369AE6975
:1037A0001143AA6823F4407323F0030342EA06227C
:1037B0001A432B69EE691B0143EA0623EE6822F4E3
:1037C0007C4233432E6A22F0FC0243EA0633076A46
:1037D0006E6913436A6827F0220742EA0612816085
:1037E0001743836101230762002084F8463084F880
:1037F0003E3084F83F3084F8423084F8433084F817
:103800003D30F8BD0120FCE7036A026A70B522F082
:1038100010020262446882690D6822F4E64242EABC
:1038200005228D6823F0200343EA05130B4DA842BF
:103830000DD1CD6823F0800343EA051324F44064DE
:10384000D1E90556354323F0400344EA850444603A
:1038500082614A688263036270BD00BF002C014030
:1038600038B590F83C300446012B4FD00120082A8F
:1038700084F83C003AD006D8BAB1042A26D00023F6
:1038800084F83C3038BD0C2AF9D12068FFF78AFD56
:10389000C3690A6943F40063C361C36923F48063A5
:1038A000C361C36943EA02232EE02068FFF728FDC5
:1038B00083690A6943F008038361836923F0040381
:1038C00083618369134383610020D8E72068FFF791
:1038D0009BFF83690A6943F400638361836923F46E
:1038E00080638361836943EA0223ECE72068FFF782
:1038F0002FFDC3690A6943F00803C361C36923F05C
:103900000403C361C3691343C361DDE70220B9E760
:1039100010B50124036A01F01F018C4023EA04035F
:103920000362036A8A401A43026210BD08B529B9CE
:1039300090F83E30012B1DD001202EE0042907D144
:1039400090F83F30012BF7D1022380F83F3014E08C
:10395000082907D190F84030012BEDD1022380F8DF
:1039600040300AE090F84130012BE5D1022380F885
:10397000413002E0022380F83E3000680122FFF768
:10398000C7FF0F4B984209D0B0F1804F0BD183682D
:1039900003F00703062B0DD1002008BD436C43F450
:1039A00000434364F3E7074B9842F0D003F580638C
:1039B0009842ECD0036843F001030360ECE700BFDA
:1039C000002C014000040040FFF7B0BF30B590F874
:1039D0003C300246012B4FF0020022D0136882F8DF
:1039E0003D005C680D6824F070042C4398685C60AE
:1039F0000C4CA3420AD0B3F1804F07D0A4F5943405
:103A0000A34203D004F58064A34204D1496820F0A6
:103A10008000014399600123002082F83D3082F844
:103A20003C0030BD002C014070477047026802F135
:103A30000C0353E8003F23F490730C3242E800314A
:103A400002680029F2D102F1140353E8003F23F089
:103A5000010302F1140C4CE800310029F3D1036B8F
:103A6000012B0BD102F10C0353E8003F23F01003AC
:103A700002F10C0C4CE800310029F3D1202380F82E
:103A8000423000230363704710B504460368C168E1
:103A90001A6922F440520A431A6182680069D9689F
:103AA0000243606921F4B05121F00C0102430A4342
:103AB000DA605A69A16922F440720A435A610E4AD7
:103AC000934215D1FFF7EEFB192343436268206848
:103AD0009200B3FBF2F36422B3FBF2F102FB113369
:103AE0001B013233B3FBF2F303EB0113836010BD10
:103AF000FFF7C8FBE8E700BF0038014010B50446F7
:103B000048B390F8413003F0FF021BB980F8402021
:103B1000FEF7D0FD2423226884F84130D368204684
:103B200023F40053D360FFF7AFFF236800201A6926
:103B300022F490421A615A6922F02A025A61DA6824
:103B400042F40052DA602023606484F8413084F843
:103B50004230606310BD0120FCE7000038B5044628
:103B6000134694F84120202A27D141B33BB30022C9
:103B70002120E384134D626484F84100A06BA38488
:103B800021628562104DC562104DC0E90C52226859
:103B90000432FEF7FDFE6FF0400223681A602268CF
:103BA00002F1140353E8003F43F0800302F11401D3
:103BB00041E800300028F3D138BD0220FCE70120A5
:103BC000FAE700BFD13B00081F3C00082D3C00086D
:103BD00008B503461B68406A1B6813F020031AD11E
:103BE000C384026802F1140353E8003F23F080030A
:103BF000143242E8003102680029F2D102F10C03CC
:103C000053E8003F43F0400302F10C0040E800316C
:103C10000029F3D108BDFDF77DFDFBE7704708B52E
:103C2000406AFFF7FBFF08BD7047704708B5406A60
:103C300003685A6990F84110212912D1120610D553
:103C40000022C28403F10C0252E8002F22F0C002CD
:103C500003F10C0C4CE800210029F3D1202280F85C
:103C600041205B6990F84220222A05D15B0603D5EA
:103C70000023C385FFF7DAFE436C43F0100343646F
:103C8000FFF7D3FF08BD08B50023406AC385C3848E
:103C9000FFF7CBFF08BD704708B50123406A4363B7
:103CA000036B012B04D1818D4908FFF7F4FF08BD98
:103CB000FFF7BAFFFBE708B503461B68406A1B68BD
:103CC00013F0200337D1C385026802F10C0353E8D7
:103CD000003F23F480730C3242E80031036800296E
:103CE000F2D103F1140252E8002F22F0010203F195
:103CF000140C4CE800210029F3D103F1140252E81E
:103D0000002F22F0400203F1140C4CE8002100299E
:103D1000F3D1202280F84220026B012A0BD103F15B
:103D20000C0252E8002F22F0100203F10C0C4CE8B8
:103D300000210029F3D100234363036B012B03D13E
:103D4000818DFFF7A8FF08BDFDF7ECFCFBE790F8BD
:103D5000423007B5222B42D181680268B1F5805FFD
:103D6000836A3FD1016900293FD15268C2F308023A
:103D700023F8022B8362C38D013B9BB2C385002BCA
:103D80002DD10268D16821F02001D160D16821F4E1
:103D90008071D160516921F001015161202280F8C8
:103DA00042204363026B012A026828D1036302F1B7
:103DB0000C0353E8003F23F0100302F10C0C4CE815
:103DC00000310029F3D11368DB0605D50191136892
:103DD000019353680193019B818DFFF75CFF03B052
:103DE0005DF804FB39B9016929B95268D2B21A7079
:103DF000836A0133BEE7526802F07F02F7E7FDF7FE
:103E000091FCECE7036873B51A6804461607D96895
:103E10005D6908D1960668D58D0666D502B0BDE805
:103E20007040FFF794BF05F0010001F49075054361
:103E30005BD0D60705D5CD0542BF636C43F00103C7
:103E40006364530704D518B1636C43F002036364E1
:103E5000960704D518B1636C43F004036364150737
:103E600007D501F0200303431EBF636C43F0080332
:103E70006364636C002B32D0920604D58B0602D5A6
:103E80002046FFF764FF266820467369626C03F0E2
:103E9000400302F0080253EA020522D0FFF7C6FDF4
:103EA00073695E0618D5226802F1140353E8003FD7
:103EB00023F04003143242E800310029F3D1E06BD3
:103EC00050B1744B4363FEF7BFFD40B1E06B436BF1
:103ED00002B0BDE8704018472046FFF7A6FE02B0CA
:103EE00070BDFFF7A2FE6564F9E7206B012840F082
:103EF0009480D50640F19180C80640F18E80002262
:103F000001921A6801925A680192019A5A695206FE
:103F10004DD5E16B0A68526892B2002ADFD0A08DBD
:103F20009042DCD9E2858A69202A36D003F10C025E
:103F300052E8002F22F4807203F10C0040E80021C7
:103F40000029F3D103F1140252E8002F22F00102FC
:103F500003F1140040E800210029F3D103F1140219
:103F600052E8002F22F0400203F1140040E8002143
:103F70000029F3D1202284F84220216303F10C02AE
:103F800052E8002F22F0100203F10C0040E800215B
:103F90000029F3D1E06BFEF737FD02236363E38D65
:103FA000A18DC91A89B22046FFF775FE97E7E28D09
:103FB000E08DA18D80B292B2002890D0891A89B28A
:103FC00000298CD003F10C0252E8002F22F49072E9
:103FD00003F10C0545E800200028F3D103F1140299
:103FE00052E8002F22F0010203F1140545E80020F9
:103FF0000028F3D1202284F84220206303F10C0230
:1040000052E8002F22F0100203F10C0545E80020D1
:104010000028F3D102236363C5E7160628D50D06F1
:1040200026D594F84120212A7FF459AFA168226A4D
:10403000B1F5805F17D12169A9B932F8021BC1F32C
:10404000080159602262E28C013A92B2E284002AAD
:104050007FF445AFDA6822F08002DA60DA6842F075
:104060004002DA603BE7511C216212785A60EAE7AD
:1040700050067FF534AF4A067FF531AFDA68204647
:1040800022F04002DA60202384F84130FDF742FB41
:1040900025E700BF873C000873B5134682850025DD
:1040A000222204468162456480F84220C06B1D4A8A
:1040B000266882621C4AC2621C4AC0E90C250A4674
:1040C000311DFEF765FC236801951A6801925A6854
:1040D0000192019A22695AB103F10C0252E8002FB1
:1040E00042F4807203F10C0040E800210029F3D172
:1040F00003F1140252E8002F42F0010203F1140010
:1041000040E800210029F3D103F1140252E8002F06
:1041100042F0400203F1140141E800200028F3D1ED
:1041200002B070BDB73C0008993C00082D3C000867
:1041300070B490F84260202E06D141B13AB100240B
:10414000046370BCFFF7A8BF022070BC7047012059
:10415000FBE72DE9F04114461D46002206460023E8
:1041600029460768B0F804802046FCF73BFC02466D
:10417000D0B1012241463846FEF718FE0022F188F0
:104180003068FEF713FED6E902231668F06AC3B959
:10419000FCF728F922462B46FCF79EF9FCF774FC45
:1041A00080B27063BDE8F08141463846FEF7FEFDFF
:1041B0000122F1883068FEF7F9FD05F100431D4644
:1041C000E1E7042B0AD1FCF70DF922462B46FCF758
:1041D00083F9FCF759FC80B2B063E3E7082B0AD1FE
:1041E000FCF700F922462B46FCF776F9FCF74CFC6D
:1041F00080B2F063D6E7FCF7F5F822462B46FCF7D1
:104200006BF9FCF741FC80B23064CBE710B5044693
:10421000818801220068FEF7C9FD0122E18820683B
:10422000FEF7C4FDD4E9022312680BB9536310BD35
:10423000042B4FF0000101D19163F8E7082B0CBF6C
:10424000D1631164F3E7000010B504464FF4004158
:1042500004480122FEF7AAFDD4E90201BDE810409E
:10426000FFF7B2BB000801402DE970430446007817
:1042700016460D464FF00008FCF7B4F84FF08049A1
:1042800002460B464046494602F090F84B464246ED
:10429000FBF76AFFFCF7F8FB3060636800FB033054
:1042A000A368B3FBF0F3013B2B60BDE8708330B52E
:1042B00000240025C0E90C23DDE90323C0E90E2317
:1042C000DDE90523C0E91023079BC0E90045C0E9EB
:1042D0000245C0E90645C0E90845C0E90A458364CE
:1042E00030BD000000000000F8B5856C0446286869
:1042F000FCF788F8064695F869000F46FCF782F847
:1043000002460B4630463946FCF710FA04A3D3E9BF
:104310000023FCF70BFAFCF78FFB2061F8BD00BF10
:104320007B14AE47E17A843FF8B5856C0446286873
:10433000FCF768F8064695F869000F46FCF762F846
:1043400002460B4630463946FCF7F0F90022104B86
:10435000FCF7C2F8D4E9102306460F46D4E90E0153
:10436000FCF7BAF808A3D3E90023FCF7B5F8024636
:104370000B4630463946FCF7D9F902460B46C4E9EC
:104380000223F8BDAFF300807B14AE47E17A843F8F
:1043900000004E4000231A460171036080F8693026
:1043A000994200DC704742710133F9E7C0E90A2302
:1043B000DDE90023C0E90C23DDE90223C0E90E2377
:1043C00000220023C0E90623C0E90823C0E9102326
:1043D000C0E91223DDE90423C0E91423DDE9062343
:1043E000C0E91823DDE90823C0E9162370472DE949
:1043F000F347D0E90223824603C8FBF7B5FEDAE9AA
:10440000148904460D4642464B46CAE91245FCF75C
:1044100063F8DAE90623FBF7A9FEDAE90A23064680
:104420000F462046CAE906672946FCF755F8DAE93F
:104430000C23CDE9000130463946FCF74DF8024621
:104440000B46DDE90001FBF791FEDAE90823064699
:104450000F4620462946FBF787FE42464B46FCF7AF
:1044600065F9DAE90E23FCF737F802460B463046C9
:104470003946FBF77BFE06460F46CAE90845DAE9EE
:104480001645CAE9106722462B46FCF7B5FA10B16B
:10449000CAE9104509E0DAE91845304622462B46BC
:1044A0003946FCF78BFA0028F2D102B0BDE8F0875C
:1044B00000220023C0E90623C0E90823C0E9102335
:1044C000C0E91223704708B500F05AFF002008BD6C
:1044D00070B5054646690B46D0E900102A69B5F962
:1044E000084086B076B1AD6965B1842C0CBF00245C
:1044F0000334CDE90165009400F0DDFE05900598D8
:1045000006B070BD842C0CBF0024033405ADCDE98A
:10451000004592B200F006FF0128F0D00020EFE73E
:1045200008B5012838BF012001F08EF8002008BD31
:1045300013B511C8013913464A424A413CB1CDE98D
:1045400000040121054801F068FB02B010BD009095
:104550000121024801F03AFBF7E700BF557F000850
:104560001FB5002401290A46039438BF0122EFF346
:104570000583BBB10921009403AB01F08BFB01283B
:1045800002D0FF2004B010BD039B4BB14FF0E023DD
:104590004FF08052C3F8042DBFF34F8FBFF36F8FDE
:1045A0000020EFE70421009301F074FB0128E8D11B
:1045B000F6E7002307B50193EFF30583B3B101A933
:1045C00000F0E9FA012803D0FF2003B05DF804FBF6
:1045D000019B4BB14FF0E0234FF08052C3F8042D04
:1045E000BFF34F8FBFF36F8F0020EEE71A461946D7
:1045F00000F0C3F90128E7D1F6E7034637B55D6857
:10460000084665B1012912D1032300220093114607
:104610002B4600F045F90446204603B030BD012981
:1046200005D10322294600F084F9044608B9002484
:10463000F2E72B462A46294600F09FF9ECE70023D3
:1046400007B50193F8B1EFF30582BAB1194601AA93
:1046500000F04DFC012803D0FF2003B05DF804FBFF
:10466000019B4BB14FF0E0234FF08052C3F8042D73
:10467000BFF34F8FBFF36F8F0020EEE700F07AFBA0
:104680000128F9D0E8E78020E7E7FFF792BF4FF075
:10469000FF3200F10803C0E90223436003610023F5
:1046A0000360704700230361704743689A684B605A
:1046B0008A60516099600368086101330360704744
:1046C00030B50C68631C0AD103695A684A6091606E
:1046D0008B605960036808610133036030BD00F1ED
:1046E0000802134652681568A542FAD9EDE7036936
:1046F000D0E901128A6051605968814208BF5A604E
:10470000002202611A68013A1A601868704710B5F1
:10471000044601F05FFCA46B01F07CFCB4FA84F069
:10472000400910BD70B51646026C0446856B42B94F
:1047300006689EB9406801F011F966600135A5630D
:1047400070BD6EB9806802F007FEA368226C134446
:104750006268A360934224BF2368A3600020EDE752
:10476000C06802F0F9FD226CE36851429B1A22688E
:10477000E36093423EBF63685B18E360022EEDD1B5
:104780000DB1013DEAE72846D8E703461A6C084612
:1047900010B462B1DC68596814448C4228BF1968AF
:1047A000DC6028BFD960D96810BC02F0D5BD10BC50
:1047B000704770B5044601F00DFC94F8455004F1C3
:1047C00024066DB2002D14DCFF2384F8453001F07F
:1047D00021FC01F0FFFB94F8445004F110066DB287
:1047E000002D12DCFF2384F84430BDE8704001F056
:1047F00011BC636A002BE7D0304600F0BDFF08B162
:1048000001F044F8013D6DB2DCE72369002BE9D0EB
:10481000304600F0B1FF08B101F038F8013D6DB24B
:10482000DEE738B50D46044640B94FF0500383F338
:104830001188BFF36F8FBFF34F8FFEE701F0CAFB04
:10484000D4E90F314B432268D0185B1A6060A26034
:1048500000201A44FF23A063E26084F8443084F807
:104860004530A5B9236973B104F1100000F084FF4D
:1048700048B14FF0E0234FF08052C3F8042DBFF34E
:104880004F8FBFF36F8F01F0C5FB012038BD04F1DE
:104890001000FFF7FCFE04F12400FFF7F8FEF2E73A
:1048A00037B50D461C4640B94FF0500383F31188CD
:1048B000BFF36F8FBFF34F8FFEE743B94FF0500345
:1048C00083F31188BFF36F8FBFF34F8FFEE74AB1B9
:1048D00091B94FF0500383F31188BFF36F8FBFF38B
:1048E0004F8FFEE741B14FF0500383F31188BFF3C0
:1048F0006F8FBFF34F8FFEE748230193019B482B37
:1049000008D04FF0500383F31188BFF36F8FBFF3CC
:104910004F8FFEE70121002D08BF2246C4E90F0595
:1049200084F8461020462260FFF77BFF204603B044
:1049300030BD70B50D46064640B94FF0500383F3C5
:104940001188BFF36F8FBFF34F8FFEE748434830A6
:1049500001F062FC044660B1002380F8463055B196
:1049600000F1480301212046C4E90F652360FFF7E9
:1049700058FF204670BD0346F4E72DE9FF410F467E
:104980001E460446019240B94FF0500383F311884C
:10499000BFF36F8FBFF34F8FFEE751B9036C43B185
:1049A0004FF0500383F31188BFF36F8FBFF34F8F26
:1049B000FEE7022E0BD1E36B012B08D04FF0500322
:1049C00083F31188BFF36F8FBFF34F8FFEE700F0C3
:1049D00063FF054630B300254FF0000801F0FAFAF6
:1049E000A26BE36B9A4201D3022E27D1324639469D
:1049F0002046FFF797FE636A1BB104F1240000F024
:104A0000BBFE48B14FF0E0234FF08052C3F8042DB5
:104A1000BFF34F8FBFF36F8F01F0FCFA012004B09A
:104A2000BDE8F081019B002BD6D04FF0500383F3FB
:104A30001188BFF36F8FBFF34F8FFEE7019B1BB948
:104A400001F0E8FA0020EAE715B902A800F0D6FE66
:104A500001F0E0FA00F0DAFC01F0BCFA94F844301E
:104A6000FF2B08BF84F8448094F84530FF2B08BF23
:104A700084F8458001F0CEFA01A902A800F0CAFE30
:104A800038BB01F0A7FAA26BE36B9A420ED101F09A
:104A9000C1FA019904F1100000F034FE2046FFF73E
:104AA00088FE00F05BFD48B1012597E701F0B2FAFE
:104AB0002046FFF77EFE00F051FDF5E74FF0E023C2
:104AC0004FF08052C3F8042DBFF34F8FBFF36F8FA9
:104AD000EAE72046FFF76DFE00F040FDB2E72DE962
:104AE000F843894617461E46044640B94FF0500326
:104AF00083F31188BFF36F8FBFF34F8FFEE751B978
:104B0000036C43B14FF0500383F31188BFF36F8FF1
:104B1000BFF34F8FFEE7022E0BD1E36B012B08D0C2
:104B20004FF0500383F31188BFF36F8FBFF34F8FA4
:104B3000FEE701F01DFBEFF311884FF0500383F304
:104B40001188BFF36F8FBFF34F8FA26BE36B9A4255
:104B500001D3022E1DD194F84550324649462046D5
:104B60006DB2FFF7DFFD6B1C0ED1636A3BB104F140
:104B7000240000F001FE10B10FB101233B600120C1
:104B800088F31188BDE8F88301356DB284F845508B
:104B9000F5E70020F4E770B50D46044640B94FF044
:104BA000500383F31188BFF36F8FBFF34F8FFEE77E
:104BB000036C43B14FF0500383F31188BFF36F8F41
:104BC000BFF34F8FFEE7036853B9436843B14FF01B
:104BD000500383F31188BFF36F8FBFF34F8FFEE74E
:104BE00001F0C6FAEFF311864FF0500383F31188FA
:104BF000BFF36F8FBFF34F8FA26BE36B934219D953
:104C000094F845100132FF294BB2A2630DD1636ABB
:104C10003BB104F1240000F0AFFD10B10DB1012350
:104C20002B60012086F3118870BD01335BB284F8DC
:104C30004530F6E70020F5E72DE9FF410E46044632
:104C4000019240B94FF0500383F31188BFF36F8F87
:104C5000BFF34F8FFEE751B9036C43B14FF05003E0
:104C600083F31188BFF36F8FBFF34F8FFEE700F020
:104C700013FE054618B300254FF0000801F0AAF90D
:104C8000A76B47B331462046013FFFF77EFDA76380
:104C9000236973B104F1100000F06EFD48B14FF0CC
:104CA000E0234FF08052C3F8042DBFF34F8FBFF3C2
:104CB0006F8F01F0AFF9012004B0BDE8F081019BD6
:104CC000002BD9D04FF0500383F31188BFF36F8FBF
:104CD000BFF34F8FFEE7019B1BB901F09BF900204A
:104CE000EAE715B902A800F089FD01F093F900F098
:104CF0008DFB01F06FF994F84430FF2B08BF84F866
:104D0000448094F84530FF2B08BF84F8458001F0BB
:104D100081F901A902A800F07DFD00BB2046FFF744
:104D2000F6FCB0B1019904F1240000F0EBFC204640
:104D3000FFF73FFD00F012FC48B94FF0E0234FF0C1
:104D40008052C3F8042DBFF34F8FBFF36F8F01253F
:104D500094E72046FFF72DFD00F000FCF7E7204622
:104D6000FFF727FD00F0FAFB2046FFF7D0FC0028F4
:104D7000EDD0B4E7F0B585B00446019140B94FF0ED
:104D8000500383F31188BFF36F8FBFF34F8FFEE79C
:104D9000056C45B14FF0500383F31188BFF36F8F5B
:104DA000BFF34F8FFEE700F077FD064620B32E4697
:104DB000002701F00FF9A36B53B3013BA3632368F2
:104DC00013B900F073FE6060236973B104F1100041
:104DD00000F0D2FC48B14FF0E0234FF08052C3F80E
:104DE000042DBFF34F8FBFF36F8F01F013F9012034
:104DF00005B0F0BD3546DBE7019B002BFAD04FF044
:104E0000500383F31188BFF36F8FBFF34F8FFEE71B
:104E1000019B53B9002D66D04FF0500383F31188E6
:104E2000BFF36F8FBFF34F8FFEE716B902A800F0F4
:104E3000E5FC01F0EFF800F0E9FA01F0CBF894F8A6
:104E40004430FF2B08BF84F8447094F84530FF2BA2
:104E500008BF84F8457001F0DDF801A902A800F050
:104E6000D9FC50BB2046FFF752FC00B323683BB986
:104E700001F0B0F8606800F01FFD054601F0CAF8C7
:104E8000019904F1240000F03DFC2046FFF791FC5D
:104E900000F064FB48B94FF0E0234FF08052C3F8B4
:104EA000042DBFF34F8FBFF36F8F012681E720469C
:104EB000FFF77FFC00F052FBF7E72046FFF779FC95
:104EC00000F04CFB2046FFF722FC0028EDD065B136
:104ED00001F080F8616A19B1236B1968C1F107010B
:104EE000606800F08BFD01F095F8002080E72DE967
:104EF000F84389469046044640B94FF0500383F387
:104F00001188BFF36F8FBFF34F8FFEE751B9036C6A
:104F100043B14FF0500383F31188BFF36F8FBFF39A
:104F20004F8FFEE701F024F9EFF311874FF05003A4
:104F300083F31188BFF36F8FBFF34F8FA56B0DB352
:104F400094F844604946204676B2FFF71EFC013DC6
:104F5000731CA56311D1236953B104F1100000F053
:104F60000BFC28B1B8F1000F02D00123C8F80030C3
:104F7000012087F31188BDE8F883013676B284F802
:104F80004460F5E72846F4E7002330B5064A52F8B6
:104F9000335002EBC3041DB942F83310606030BDDA
:104FA0000133082BF3D1FAE73C16002070B5044614
:104FB0000D46164601F00EF894F84430FF2B04BF5E
:104FC000002384F8443094F84530FF2B04BF0023BD
:104FD00084F8453001F01EF8A36B2BB93246294600
:104FE00004F1240000F0A8FB2046BDE87040FFF764
:104FF000E0BB00002DE9F041044600F0EBFF2F4B31
:105000002F4E1A682F4F01321A603568002D4AD191
:1050100034601B68012B1FD1B84640460135FFF7AD
:1050200036FB072D08F11408F7D1DFF89C80274DD7
:105030004046FFF72CFB2846FFF729FB2448FFF7E3
:1050400026FB2448FFF723FB2348FFF720FB234BD5
:10505000C3F80080224B1D60224A23491368086868
:10506000013313600123E26A9340034314200B6071
:1050700000FB0270211DFFF718FB00F0CBFF1B4B5C
:105080001B6873B13368DA6AE36A9A4209D24FF057
:10509000E0234FF08052C3F8042DBFF34F8FBFF3CE
:1050A0006F8FBDE8F081114B1A68E36A002AD3D1F3
:1050B0003268D26A9A4298BF3460CDE7A0160020C9
:1050C000A01700201417002000170020EC16002065
:1050D000D0160020BC160020A4160020E8160020E0
:1050E000E416002084160020981600209416002054
:1050F000F8B51A4B1A4D06461C6828680F4604304E
:10510000FFF7F5FA40B92A681649D06A01220B6800
:10511000824023EA02030B60731C07D137B1296870
:1051200011480431BDE8F840FFF7BFBA2B68A41955
:105130005C6007D30D4B18682968BDE8F84004315E
:10514000FFF7BEBA0A4B186829680431FFF7B8FAAE
:10515000084B1A68A24288BF1C60F8BD9C1600204C
:10516000A017002098160020A4160020E4160020A6
:10517000E816002080160020064A13681968064BBE
:1051800019B94FF0FF321A6070471268D268D268BE
:105190005268F8E7E81600208016002010B590F855
:1051A000513004463BB9006B01F0C8F82046BDE819
:1051B000104001F0C3B8012BF9D0022B08D04FF0FA
:1051C000500383F31188BFF36F8FBFF34F8FFEE758
:1051D00010BD000080B5134C134F144D236873B9F4
:1051E000134B1B68012BF8D94FF0E0234FF080528E
:1051F000C3F8042DBFF34F8FBFF36F8FEDE700F0BF
:10520000E9FEFB68DE68301DFFF771FA2B68013B91
:105210002B602368013B236000F0FCFE3046FFF763
:10522000BDFFDBE7B8160020BC160020A01600204A
:10523000141700202DE9F0470746DDE9098402F143
:105240008042266B013A06EB8206994626F0070655
:105250004B1E04F133020F3113F8010F02F8010F56
:1052600008B18B42F8D1089D4FF0000A062D28BFE7
:105270000625201DC4E9115AE56284F843A0FFF712
:1052800011FAC5F1070504F11800FFF70BFAC4F88D
:105290004CA04A46394630462461A561646284F8D0
:1052A00050A000F073FE2060B8F1000F01D0C8F8E4
:1052B0000040BDE8F08770B586B0DDE90B5445B914
:1052C0004FF0500383F31188BFF36F8FBFF34F8FFD
:1052D000FEE744B94FF0500383F31188BFF36F8F9B
:1052E000BFF34F8FFEE754260596059E542E08D037
:1052F0004FF0500383F31188BFF36F8FBFF34F8FCD
:10530000FEE72563022584F8515004AD01950A9DFE
:1053100002940095FFF78EFF2046FFF76BFE04987E
:1053200006B070BD2DE9F043074685B09000884671
:105330001646994600F070FF054620B94FF0FF3041
:1053400005B0BDE8F083542000F066FF044698B134
:10535000002380F851300D9B056301930C9B32466E
:1053600041460290009338464B46FFF763FF2046C4
:10537000FFF740FE0120E3E7284600F0DFFFDDE70E
:1053800010B5002488B007AA06A905A8CDE90544F0
:10539000FBF73AFE059B079A0293069B1649CDE957
:1053A000004316482346FFF786FF18B300F0DCFBE6
:1053B000012814D14FF0500383F31188BFF36F8F8E
:1053C000BFF34F8F4FF0FF320D4B1A600D4B18603B
:1053D0000D4B1C6008B0BDE8104000F07BBE0130F2
:1053E00008D14FF0500383F31188BFF36F8FBFF3E1
:1053F0004F8FFEE708B010BD0A7F0008D5510008A6
:1054000080160020941600209C160020024A136883
:1054100001331360704700BF7C160020014B1868F1
:10542000704700BF9C160020414B2DE9F74F1B68C9
:10543000002B75D13F4B1C6801341C60BCB93E4B3E
:105440001A68126842B14FF0500383F31188BFF31A
:105450006F8FBFF34F8FFEE7384A196810681860E6
:105460001160374A136801331360FFF785FE354D2D
:105470004FF0000B2B68344EA342344F11D9142146
:105480003A68D26A4A43B258022A28BF4FF0010B49
:105490002F4A1268002A0CBF5846012003B0BDE80D
:1054A000F08FDFF894A0DFF8AC90DAF800201268F3
:1054B0001AB94FF0FF322A60E1E7DAF80020D2682B
:1054C000D2F80C80D8F804108C4201D22960D6E7BB
:1054D00008F1040318460193FFF709F9D8F82810DA
:1054E00019B108F11800FFF702F901224FF0140C6E
:1054F000D8F82C00D9F8003002FA00F119430CFB5F
:105500000060C9F8001008F10401FFF7CEF8386810
:10551000D8F82C10C26A914228BF4FF0010BC4E7A3
:105520000D4A4FF0000B136801331360B0E700BF62
:105530007C1600209C160020E8160020E4160020AF
:10554000881600208016002014170020A0170020C5
:105550008C16002098160020901600202DE9F843A4
:10556000314C236843B94FF0500383F31188BFF3E4
:105570006F8FBFF34F8FFEE700F02CFD2368013BD8
:10558000236024682CB1002400F044FD2046BDE8CF
:10559000F883264B1B68002BF5D0254D254EDFF8F0
:1055A00098801FE0EB680127DC6804F1040904F12E
:1055B0001800FFF79CF84846FFF799F81420E26AB4
:1055C000316807FA02F30B4300FB0280494633605F
:1055D000FFF76BF8194BE26A1B68DB6A9A4201D34A
:1055E000174B1F602B68002BDCD10CB1FFF7C4FDFB
:1055F000144D2C6844B10127114EFFF715FF00B17F
:105600003760013CF9D12C600D4B1B68002BBAD0E0
:105610004FF0E0234FF08052C3F8042DBFF34F8FBB
:10562000BFF36F8F0124AFE77C160020A016002087
:10563000D01600209816002014170020A017002074
:105640008C1600209016002008B550B94FF0E023CA
:105650004FF08052C3F8042DBFF34F8FBFF36F8F0D
:1056600008BD0A4B196841B14FF0500383F311880C
:10567000BFF36F8FBFF34F8FFEE7FFF7C7FEFFF754
:1056800037FDFFF76BFF0028E0D0E9E77C1600202C
:10569000174B10B51A68174B12B101221A6010BDD2
:1056A0001A60154B1A68B2FA82F21423D2B2C2F110
:1056B0001F0253431149CC58C81844B94FF0500346
:1056C00083F31188BFF36F8FBFF34F8FFEE74468FA
:1056D000083364680B449C4208BF6368446008BF99
:1056E0004360142303FB02114B68DA68044BD5E7CF
:1056F0007C1600208C16002098160020141700201D
:10570000A017002010B50C4640B94FF0500383F3AA
:105710001188BFF36F8FBFF34F8FFEE7054B1968FA
:105720001831FEF7CDFF2046BDE810400121FFF7FC
:10573000DFBC00BFA017002038B50D46144640B9A5
:105740004FF0500383F31188BFF36F8FBFF34F8F78
:10575000FEE7084B19681831FEF7A7FF002C214619
:1057600008BF2846BDE8384018BF4FF0FF30FFF7AC
:10577000BFBC00BFA017002038B5C368DC6844B9BF
:105780004FF0500383F31188BFF36F8FBFF34F8F38
:10579000FEE704F118052846FEF7A9FF114B1B6828
:1057A000E3B9251D2846FEF7A2FF01230E49E26A50
:1057B00008689340034314200B6029460B4B00FB01
:1057C0000230FEF772FF0A4BE26A1B68DB6A9A42FC
:1057D00085BF0120074B0020186038BD29460648C8
:1057E000EFE700BF7C160020981600201417002059
:1057F000A01700208C160020D0160020034B1B6839
:105800000360034B1B684360704700BF881600208D
:105810009C16002070B50C46054640B94FF0500369
:1058200083F31188BFF36F8FBFF34F8FFEE741B94A
:105830004FF0500383F31188BFF36F8FBFF34F8F87
:10584000FEE700F0C7FB0F4B196823685A1C10D005
:105850000D482E6800686A68864201D08A420FD9D6
:10586000881A83420AD95B1A134428462360FFF73B
:10587000C5FF002400F0CEFB204670BD002323604E
:105880000124F7E79C160020881600200122014B16
:105890001A6070478C160020054B1B6833B1054B0E
:1058A0001868B0FA80F04009400070470120704746
:1058B000941600207C1600202DE9F04104460028B3
:1058C0002FD0234DC36A2A68D26A934237D2142656
:1058D0008269204F002AA8BF2A6806FB0373A2BF73
:1058E000D26AC2F10702826142699A4215D100F17F
:1058F00004084046FEF7FBFE174AA0B12B6811686A
:10590000D86A012383400B4313601423E0624146AD
:1059100003FB0070FEF7C9FE02E02B68DB6AC3627E
:105920000120BDE8F081E06A4643BB59002BE5D178
:1059300001211368814023EA01031360DEE72B682D
:10594000406CDB6A98422CBF00200120E9E700BFD1
:10595000A01700201417002098160020F8B5044660
:1059600008B90020F8BD224B1B68834208D04FF0D5
:10597000500383F31188BFF36F8FBFF34F8FFEE7A0
:105980009B6C43B94FF0500383F31188BFF36F8FC3
:10599000BFF34F8FFEE7C16A426C013B91428364C3
:1059A000DFD0002BDDD1061D3046FEF7A0FE114FE3
:1059B000114A50B91423E16A4B43FB582BB9012516
:1059C00013688D4023EA05031360636C1420C3F150
:1059D0000701A161E3620124116804FA03F500FBE9
:1059E00003700D4331461560FEF75FFE2046B9E7B0
:1059F000A01700201417002098160020F8B50446C0
:105A000000284BD0826C42B94FF0500383F31188C9
:105A1000BFF36F8FBFF34F8FFEE7436C994238BFE0
:105A20001946C36A8B4239D0012A37D11C4A126801
:105A3000824208D14FF0500383F31188BFF36F8F78
:105A4000BFF34F8FFEE71425164E826905FB0363F3
:105A5000002A4269C162A4BFC1F1070181619A4273
:105A60001CD1071D3846FEF742FEE26A0E4C40B9D3
:105A7000554373592BB901212368914023EA01034F
:105A8000236001231420216893400B4300FB026034
:105A900039462360BDE8F840FEF707BEF8BD00BFF9
:105AA000A01700201417002098160020044B1A6835
:105AB0001AB119688A6C01328A641868704700BF8D
:105AC000A0170020914208B5416000610AD8D21A9F
:105AD00083699A420DD2084B011D1868FEF7F0FD4C
